:100000000C942D010C9455010C9455010C94550140
:100010000C9455010C9455010C9455010C94550108
:100020000C9455010C9455010C941D130C943F0F26
:100030000C9455010C9455010C9455010C945501E8
:100040000C9455010C9455010C9455010C945501D8
:100050000C9455010C9455010C9455010C945501C8
:100060000C9455010C946E030C9495030C9455015B
:100070000C9455010C9455010C9455010C945501A8
:100080000C9455010C9455010C9455010C942403C7
:100090000C9455010C9455010C9455010C94550188
:1000A0000C9455010C9455010C94550105A84CCDA8
:1000B000B2D44EB93836A9020C50B9918688083CA2
:1000C000A6AAAA2ABE000000803F08000000BE9237
:1000D0002449123EABAAAA2ABECDCCCC4C3E00008D
:1000E0000080BEABAAAAAA3E00000000BF0000002C
:1000F000803F0000000000084178D3BB4387D11344
:100100003D190E3CC3BD4282AD2B3E68EC8276BEEB
:10011000D98FE1A93E4C80EFFFBE01C4FF7F3F00B5
:1001200000000000000102030D41524D3B414E47CB
:100130004C453B484F52495A4F4E3B4241524F3B30
:100140004245455045523B00524F4C4C3B50495460
:1001500043483B5941573B414C543B506F733B50D4
:100160006F73523B4E6176523B4C4556454C3B4D6E
:1001700041473B56454C3B00000000000706050484
:100180000100080A0B0C0D090000000025002800E2
:100190002B002E00310000000000240027002A0060
:1001A0002D003000040404040403040502020202CA
:1001B0000403020202020606060606060404020200
:1001C00002040404080201104080401020408040D6
:1001D000800802040180402010020110801020409D
:1001E0004020080B00020202010009040000010285
:1001F000020000052400100105240101010424026D
:1002000006052406000107058103100040090401CA
:1002100000020A00000007050202400000070583F3
:10022000024000000403090412010002EF02014031
:100230004123368000010102030141726475696E39
:100240006F204C4C430041726475696E6F204C65A1
:100250006F6E6172646F0000E42A11241FBECFEF3D
:10026000DAE0DEBFCDBF28E0AEE7B1E001C01D920D
:10027000A83CB207E1F711E0A0E0B1E0E4E0FEE560
:1002800002C005900D92AE37B107D9F711E0CDE26B
:10029000D1E004C02197FE010E94F52ECC32D10797
:1002A000C9F70E949D130C94002F0C940000CF936B
:1002B000DF931F92CDB7DEB76983DC01ED91FC912E
:1002C0000280F381E02D41E050E0BE016F5F7F4F7F
:1002D00009950F90DF91CF9108952091960430E019
:1002E000D901A956BA4F9C919F5F97FD90E0A90153
:1002F000490F511D490F511DFA01E956FB4F8083EB
:10030000F901EC56FB4F2081822780839C9308954E
:10031000CF93DF931F92CDB7DEB799830E946D0113
:100320009981892F0F90DF91CF910C946D011F93CC
:10033000CF93DF9300D0CDB7DEB7182F862F798308
:100340009A830E946D017981872F0E946D01812F10
:100350000E946D019A81892F0F900F90DF91CF91AC
:100360001F910C946D01CF93DF93EC01FE018491FA
:10037000882331F0FE0184910E946D012196F6CF11
:10038000DF91CF9108951F93CF93DF93C82F162F3E
:1003900084E20E946D018DE40E946D01C11102C0D2
:1003A0008EE301C081E20E946D01C0919604D0E00D
:1003B000FE01EC56FB4F1082812F0E946D01C85741
:1003C000DB4F8881DF91CF911F910C946D01682FD5
:1003D00080E00C94C3018091960490E0FC01E65704
:1003E000FB4F208131E0320F3083820F911D820F4D
:1003F000911DFC01E85FFB4F80810895CF93DF934F
:100400000E94EB01C82FD0E00E94EB0190E0982FF2
:1004100088278C0F9D1FDF91CF910895CF93DF9395
:10042000EC01CB0120914101222331F0BA010E945D
:1004300079111816190634F081E090E09B838A83C5
:1004400080E090E0DF91CF9108950C942A12FC0196
:100450008485958597FD05C02FEF3FEF358724876D
:1004600008950C94FF11CF93DF93EC018C859D854B
:1004700097FF04C00E94FF119D878C878C859D8506
:10048000DF91CF910895FC018485958597FD05C086
:100490000E94351290E0019608950E94351290E076
:1004A0000895CF93DF9390E0FC01ED53FE4F24912C
:1004B000FC01EC55FE4F8491882361F190E0880F98
:1004C000991FFC01EA56FE4FC591D491FC01E857F3
:1004D000FE4FA591B491611109C09FB7F89488812E
:1004E000209582238883EC912E230BC0623061F427
:1004F0009FB7F8943881822F809583238883EC916D
:100500002E2B2C939FBF06C08FB7F894E8812E2B1B
:1005100028838FBFDF91CF910895823108F08251F7
:10052000E82FF0E0E458FE4FE49180917B00E3FB7C
:10053000222720F930E095E0220F331F9A95E1F74A
:100540008F7D282B20937B00E770E064E0937C0094
:1005500080917A00806480937A0080917A0086FD91
:10056000FCCF809178002091790090E0922B089543
:100570003FB7F8948091A4079091A507A091A60792
:10058000B091A70720919400C09B05C02F3F19F0A0
:100590000196A11DB11D3FBFBA2FA92F982F882703
:1005A000820F911DA11DB11DBC01CD0142E0660F5E
:1005B000771F881F991F4A95D1F708958F929F92B0
:1005C000AF92BF92CF92DF92EF92FF926B017C01CC
:1005D0000E94B8024B015C01C114D104E104F10492
:1005E000F1F00E94B802DC01CB0188199909AA092F
:1005F000BB09883E9340A105B10570F321E0C21A02
:10060000D108E108F10888EE880E83E0981EA11C4D
:10061000B11CC114D104E104F10419F7DDCFFF903E
:10062000EF90DF90CF90BF90AF909F908F90089504
:100630002FB7F8946091A0077091A1078091A2074D
:100640009091A3072FBF08951F920F920FB60F929C
:1006500011242F933F938F939F93AF93BF938091D8
:10066000A0079091A107A091A207B091A307309194
:100670009F0723E0230F2D3720F40196A11DB11D04
:1006800005C026E8230F0296A11DB11D20939F07E8
:100690008093A0079093A107A093A207B093A3070C
:1006A0008091A4079091A507A091A607B091A707F4
:1006B0000196A11DB11D8093A4079093A507A09357
:1006C000A607B093A707BF91AF919F918F913F91DC
:1006D0002F910F900FBE0F901F9018951F920F92A1
:1006E0000FB60F9211242F938F939F93EF93FF9345
:1006F0009091CE0080919E078F5F20919C0782177A
:1007000051F0E0919E07F0E0EE0FFF1FE556FA4F23
:10071000918380939E07FF91EF919F918F912F91ED
:100720000F900FBE0F901F9018951F920F920FB64B
:100730000F9211248F939F93EF93FF9380919A05CB
:1007400090919805981771F08F5F87FD80E0E82FF2
:10075000F0E0EE0FFF1FE956FB4F91819093CE0022
:1007600080939A0590919805891305C08091C900DE
:100770008F7D8093C900FF91EF919F918F910F9092
:100780000FBE0F901F9018958FEF90E02091BC0046
:1007900027FD18C00197D1F71092BC000E94B80243
:1007A0006093DE037093DF038093E0039093E10393
:1007B0008091A3019091A40101969093A40180934C
:1007C000A301089508950F931F93CF93DF931F9272
:1007D000CDB7DEB70CEB10E094EAF8019083898383
:1007E0000E94C40389818093BB0084E8F801808360
:1007F0000F90DF91CF911F910F910C94C403CF9272
:10080000DF92EF92FF921F93CF93DF9300D0CDB78B
:10081000DEB7880F4A8369830E94E3038BEBE82EDF
:10082000F12C6981F70160839CEBC92ED12C14E86F
:10083000F60110830E94C4034A81F7014083F60148
:1008400010830E94C40384E9F60180830F900F9007
:10085000DF91CF911F91FF90EF90DF90CF9008959F
:10086000CF93DF934EE264EF87E70E94FF038EEEA3
:100870000E94E30386EF8093BB00CCEBD0E084E8DA
:1008800088830E94C40384E98883DF91CF9108950F
:10089000AF92BF92CF92DF92EF92FF920F931F938E
:1008A000CF93DF9300D01F92CDB7DEB7182F790119
:1008B000880F4A835B8369830E94E30369816093A5
:1008C000BB0084E88093BC000E94C403812F880F82
:1008D00081600E94E303570181E0A81AB1084A81B0
:1008E000042F5B81152F84E9C82E8FEFA816B80658
:1008F000D1F0DD24D394A114B10419F4D12C84E8EF
:1009000001C084EC8093BC000E94C4038091BB00B2
:10091000D11002C0C092BC00F80181938F01F1E0B8
:10092000AF1AB108E2CFC7010F900F900F90DF917F
:10093000CF911F910F91FF90EF90DF90CF90BF90DC
:10094000AF900895FF920F931F93CF93DF9326E00C
:1009500030E047E951E063E488E60E944804809172
:10096000990190E0982F882720919A01822B9595E4
:100970008795959587959093CF018093CE0180912F
:10098000970190E0982F882720919801822B9195CC
:100990008195910995958795959587959093D10126
:1009A0008093D00180919B0190E0982F882720911F
:1009B0009C01822B919581959109959587959595A7
:1009C00087959093D3018093D2018091A501909156
:1009D000A601009709F443C0F090B507A8EEB3E074
:1009E000EEEEF3E0CEECD1E0811522E0920721F4A7
:1009F000108211821282138248815981052E000CC7
:100A0000660B770B0081118122813381400F511FCA
:100A1000621F731F419351936193719319921992BD
:100A20008130910521F011961C921E920CC029E094
:100A300075956795579547952A95D1F711965C93CB
:100A40004E9334E0F32E129623E0EA3FF20761F66C
:100A5000F092B50701979093A6018093A501C8EE87
:100A6000D3E0EEECF1E0A2EEB3E089919991208120
:100A70003181281B390B4D915C911197CA0180522D
:100A800093402817390734F0805C994F28173907AD
:100A90000CF4C901819391938D939D9381E0E43D82
:100AA000F80719F7DF91CF911F910F91FF900895EB
:100AB000E4EDF1E08081918124E0880F991F2A956F
:100AC000E1F79E53909389008093880082819381FF
:100AD00034E0880F991F3A95E1F79E5390938B006D
:100AE00080938A0084819581885E9340880F991F46
:100AF0002FEE37E0A901481B590BCA01AFEBB0E05C
:100B00009C938481885E880F9FEE981B9093CF0002
:100B100086819781880F991F805C97409C9386817E
:100B2000880F805C8093D20008954F925F926F92FD
:100B30007F928F929F92AF92BF92CF92DF92EF926D
:100B4000FF92CF93DF9300D000D0CDB7DEB76B011B
:100B50007C0129013A010E94242B4B015C01C30155
:100B6000B2010E94242B9B01AC01C501B4010E947B
:100B7000032D4B015C01B701A601F7FE07C0442716
:100B80005527BA014C195D096E097F09D301C201CD
:100B900077FE07C088279927DC0184199509A609E3
:100BA000B709481759076A077B078CF520E030E43E
:100BB0004FE054E4C501B4010E945F2B69837A833E
:100BC0008B839C8329E23CE54FE85EE3C501B401D9
:100BD0000E945F2BA50194010E945F2B20E030E072
:100BE00040E85FE30E94922C9B01AC0169817A810D
:100BF0008B819C810E94032D0E94752D9B0177FEA5
:100C000031C0F7FC2DC09B01285F384F2BC020E07E
:100C100030E44FE054E4C501B4010E945F2B2B0186
:100C20003C01A5019401C501B4010E945F2B29E29A
:100C30003CE54FE85EE30E94922C9B01AC01C301AE
:100C4000B2010E94032D9B01AC0160E070E081E6DF
:100C500094E40E94912C0E94752D9B01F7FE02C026
:100C600028503740C9010F900F900F900F90DF91DF
:100C7000CF91FF90EF90DF90CF90BF90AF909F907B
:100C80008F907F906F905F904F900895CF92DF92FA
:100C9000EF92FF920F931F93CF93DF93082F142FA0
:100CA000C0E0C62ED12CE12CF12CC11791F0D0E080
:100CB000D01739F04D9AC701B6010E94DE02DF5FFE
:100CC000F7CF6CE370E080E090E00E94DE02CF5F3F
:100CD000ECCFDF91CF911F910F91FF90EF90DF90BC
:100CE000CF9008952F923F924F925F926F927F9292
:100CF0008F929F92AF92BF92CF92DF92EF92FF922C
:100D00000F931F93CF93DF93CDB7DEB766970FB6E0
:100D1000F894DEBF0FBECDBF109289014FE350E0C3
:100D20006EE070E08FEE91E00E941D2CEFEEF1E09E
:100D300085E59EE39E0F9E1719F02191820FFBCF50
:100D400090912D02891751F043E064E686E00E94FD
:100D5000460683E08093B5070E94D107E0900F021A
:100D6000F12C00910E0222ECC22E21E0D22E612C39
:100D7000712C10E034EC832E39E0932EA12CB12C91
:100D8000669C9001679C300D300D1124295131096A
:100D9000E29EC001E39E900DF29E900D11248C53B3
:100DA000964F869DD001879DB00D969DB00D112464
:100DB00098010E94E62EA50194010E94BF2EF60123
:100DC000219331936F01FFEF6F1A7F0A26E06216BD
:100DD0007104B1F6309113023D8B04E6031B0B83C3
:100DE0006AE0369FA00111245D834C838091140238
:100DF00090E024E630E0281B390BA901330F660B85
:100E0000770B4E835F836887798700912B0210915F
:100E10002C0220ED37E0B901601B710B7B876A87DC
:100E20007D89272E312C319421943108ECEAF1E0B0
:100E3000FA83E983C12CD12C76019101032C000C9B
:100E4000440B550B288B398B4A8B5B8B8E8B9C8B81
:100E50008AE0482E512C612C712C98EE892E93E05B
:100E6000992EA12CB12C121413042CF0211431044E
:100E700021F441E003C04B8101C04D89229CD00187
:100E8000239CB00DB00D1124688979898A899B89CA
:100E90006C0D7D1D8E1D9F1D6C877D878E879F87A6
:100EA0002E893C890E94E62E449F90011124032E36
:100EB000000C440B550B0E94BF2E6E817F818885EC
:100EC0009985620F731F841F951F2C853D854E8564
:100ED0005F850E94452CA30192010E94BF2EAC8128
:100EE000BD81A20FB31F2A853B850E94DE2EA5017E
:100EF00094010E94BF2E200F311FE981FA812193B6
:100F00003193FA83E983FAE02F0E311C2AE0C20EF6
:100F1000D11CE11CF11C3EE6C316D104E104F1042E
:100F200009F0A1CF66960FB6F894DEBF0FBECDBF15
:100F3000DF91CF911F910F91FF90EF90DF90CF90B5
:100F4000BF90AF909F908F907F906F905F904F90E9
:100F50003F902F900895CF93C82F10928901EFEE04
:100F6000F1E095E58EE38E0F8E1719F02191920F27
:100F7000FBCF90932D024FE350E06EE070E08FEED8
:100F800091E00E942D2C0E947206C13029F441E0AC
:100F900064E18FE00E94460681E08093B507CF911F
:100FA0000895EFEEF1E021E221839EE1938787E14E
:100FB000858B22839487868B84E483832DE2258727
:100FC000178A94E6948389E1868788E1808F8BE095
:100FD00085831786118E84E1868338E0308B228FDB
:100FE0002EE02783818B80E5838F8AE580872AE046
:100FF000228B948F98E291871286148A168E878F9F
:1010000010A211A212A213A282E384A385A313A6A5
:1010100012A615A614A613AA12AA87E090E097A715
:1010200086A780E290E091AB80AB17A216A211A632
:1010300010A614AA8AE194E096AB85AB80E487AB56
:101040008DEB80AF88EB81AF83EB82AF80E183AF24
:1010500088EE93E095AF84AF80E00C94AB071092DC
:101060004B021092310210924A0288EE93E0909364
:1010700041028093400280914C0281FF03C08D7F2A
:1010800080934C0208952091A5013091A601809192
:101090004C02232BC1F483FF16C081FD1EC0826069
:1010A00080934C028091AA019091AB019093A90189
:1010B0008093A8018091A70190912A02981768F463
:1010C00080930C010AC081FD08C041E06FEF82E00F
:1010D0000E94460681E08093B60780917E018111CF
:1010E0000FC081E080937E0180E092E09093A601A2
:1010F0008093A5018AE090E0909388018093870116
:1011000008952F923F924F925F926F927F928F92AB
:101110009F92AF92BF92CF92DF92EF92FF920F9386
:101120001F93CF93DF9300D000D000D0CDB7DEB7B0
:10113000312C84E092E00AE0202E280E84E291E037
:1011400025E0280F298384E491E0E8E0E80FEA83B2
:10115000A090AA01B090AB0130929604E12CFF243C
:10116000F394C12C12E0D12E90909604911003C0FC
:101170000E94351210C0292D30E0F901E356F84FD6
:101180008081F901E556F84F208190E0821B91099A
:10119000B7010E94AB2E882309F456C5292D30E0F3
:1011A000F901E956FA4F8081F901E756FA4F90812B
:1011B000891B8F778F3408F04DC5911009C09C8230
:1011C0003B830E942A120E94FF112C813B8115C093
:1011D000F901E556F84F4081C901840F911D840F34
:1011E000911DDC01A556BA4F8C91D901A356B84F79
:1011F0009C91941711F04F5F4083A901440F551F34
:10120000FA01E057FB4F608171816115710549F466
:1012100021E030E0843211F020E030E0318320839F
:10122000A3CF6130710529F48D3441F482E090E060
:101230000AC06230710559F48C3319F080E090E0F7
:1012400002C083E090E0FA01E057FB4F28C0633012
:101250007105B1F4813408F0F4C4D901A257BB4F31
:101260008C93D901A457BB4F1C92D901A657BB4FF1
:101270001C92D901AC56BB4F8C9384E090E00FC018
:101280006430710579F4D901A857BB4F8C93D9010B
:10129000AC56BB4F9C9189278C9385E090E091835D
:1012A000808362CF6530710509F05ECFD901A45704
:1012B000BB4F9C91F901E257FB4F4081F901EC567D
:1012C000FB4F941778F440814827408341E0490F51
:1012D0004C93290F311D290F311DF901E85FFB4F98
:1012E000808342CF90819813A5C4F901E857FB4F42
:1012F00080818A3909F469C208F09FC0803709F4F7
:10130000D1C308F071C0883609F484C340F585362E
:1013100009F40AC3C0F4843609F05BC487E00E9474
:10132000E7018CED0E946D0183E00E946D0180E079
:101330000E946D01E8E7F1E06591759185919491C6
:101340000E9497014AC4863609F430C3873609F0F3
:1013500040C480E10E94E701A8E09A2E53C38D3675
:1013600009F486C3E8F4893609F46FC38C3609F0B2
:1013700030C488E00E94E7018091E2019091E3018E
:101380000E9488018091E4019091E5010E9488010A
:10139000C5010E9488018091A8019091A901D1C343
:1013A0008E3609F473C38F3609F013C487E00E94A8
:1013B000E70180910E020E946D0180910F020E9450
:1013C0006D01809110020E946D01809111020E94B6
:1013D0006D01809112020E946D01809113020E94A2
:1013E0006D0180911402DFC2853709F477C388F458
:1013F000823709F4A1C308F477C3833709F4A4C37F
:10140000843709F0E6C38EE10E94E70189E291E0AA
:101410007EC3873909F4C9C148F4873709F47AC310
:10142000863909F0D6C3812C912C4AC1883909F438
:10143000BFC1893909F4BFC1CCC38A3C09F447C292
:1014400008F077C08F3909F4F9C160F48C3909F4D8
:10145000D2C108F4C5C18D3909F4D7C18E3909F458
:10146000DEC1B7C38E3B09F4CDC008F057C0803A47
:1014700009F4EFC18D3B09F0ACC38CE00E94E70199
:1014800041E064E18FE00E94460620E030E04AE758
:1014900053E4609132017091330180913401909155
:1014A00035010E945F2B0E947C2D6093FC036091AC
:1014B000F30170E080E090E00E94242B20E030E017
:1014C0004AE753E40E945F2B20E030E048E453E415
:1014D0000E94032D0E947C2D6093FD038091FD01ED
:1014E0008093FE036091070270E080E090E00E942C
:1014F000242B20E030E04AE753E40E945F2B20E0F9
:1015000030E048EC52E40E94032D0E947C2D609351
:10151000FF03ECEF8E2EE3E09E2E69C0873C09F4BA
:10152000A9C1883C09F055C3FAE38F2EF2E09F2E43
:101530004EC0803D09F418C370F58D3C09F41BC3FF
:1015400018F58B3C09F4D9C18C3C09F042C30E94C8
:10155000EB0180930E020E94EB0180930F020E9428
:10156000EB01809310020E94EB01809311020E9414
:10157000EB01809312020E94EB01809313020E9400
:10158000EB01809314020DC38E3C09F4FDC28F3C25
:1015900009F407C31EC38D3D09F413C350F4833D02
:1015A00009F4BBC18C3D09F014C381E08093300283
:1015B00014C38A3F09F4F2C28E3F09F00AC388E0DF
:1015C0000E94E7013FE7832E31E0932EEEC20E9496
:1015D000FE01F401819391934F01FAE48F16F2E03A
:1015E0009F06A9F710922F0210922E02DAC2F40180
:1015F00081914F010E946D01F8E08F16F4E09F0683
:10160000B1F7EBC27CEF872E73E0972E0E94EB01BF
:10161000F40181934F01F8E08F16F4E09F06B1F7D3
:1016200041E064E18FE00E9446066091FC0370E0B7
:1016300080E090E00E94242B20E030E04AE753E471
:101640000E94032D60933201709333018093340123
:10165000909335016091FD0370E080E090E00E947E
:10166000242B20E030E04AE753E40E94032D20E0E1
:1016700030E048E453E40E945F2B0E947C2D60938D
:10168000F3018091FE038093FD016091FF0370E000
:1016900080E090E00E94242B20E030E04AE753E411
:1016A0000E94032D20E030E048EC52E40E945F2BC2
:1016B0000E947C2D6093070280E00E94AB07BAC2B3
:1016C0000E94EB0190E086509F4F880F991F880F72
:1016D000991FF401EE0FFF1FE35FFE4F918380839C
:1016E0002FEF821A920A84E08816910449F70E942B
:1016F000EB01982F929596959695937019F428EE94
:1017000033E007C0913019F42CED35E002C020ED34
:1017100037E03093160120931501282F207330E015
:1017200044E0359527954A95E1F72115310519F4DF
:1017300028EE33E008C02130310519F42CED35E0F6
:1017400002C020ED37E03093180120931701282FB5
:101750002C7030E035952795359527952115310565
:1017600019F428EE33E008C02130310519F42CEDCE
:1017700035E002C020ED37E030931A0120931901C3
:10178000837019F488EE93E007C0813019F48CED72
:1017900095E002C080ED97E090931C0180931B01BF
:1017A00010922F0210922E0245C20E94430815C2C9
:1017B0000E942F0812C28091170290911802883758
:1017C00091050CF00AC2019634C0809117029091E5
:1017D00018028938EFEF9E070CF4FFC1019729C06A
:1017E00080911502909116028938FFEF9F070CF443
:1017F000F4C1019737C08091150290911602883785
:1018000091050CF0EAC101962DC0809117029091CC
:101810001802883791050CF0E0C10A960AC0809141
:1018200017029091180289382FEF92070CF4D5C156
:101830000A97909318028093170218C0809115029E
:10184000909116028938EFEF9E070CF4C6C10A97F3
:1018500009C08091150290911602883791050CF00D
:10186000BCC10A96909316028093150281E00E94F3
:10187000AB07B3C18EE00E94E70180E00E946D01DA
:1018800080E090E00E9488018091360290913702BA
:101890000E9488018091E2019091E3010E948801F9
:1018A0008091E4019091E5010E94880180913202CB
:1018B000909133020E9488018091A7010E946D01DE
:1018C000809117020E946D01809115026CC084E026
:1018D000882E82E0982E0E94EB01F4017497808399
:1018E0000E94EB01F4013A9780830E94EB01F4011E
:1018F00081934F012E12EFCF54C109E1802E02E0F7
:10190000902E0E94FE01F401819391934F01F3E226
:101910008F16F2E09F06A9F744C10E94FE01909342
:10192000FB038093FA033DC18BE00E94E7018091A5
:10193000E6019091E7010E9488018091A3019091B6
:10194000A4010E94880183E090E00E948801209118
:101950004C0225FB442440F8512CB201660F771F3E
:1019600026FB882780F98D831E828D819E81880FBA
:10197000991F880F991F682B792B21FB002700F9ED
:1019800010E0602B712B8091EE01E0E18E9FC00191
:101990001124682B792B072E000C880B990B0E94C1
:1019A0009701809189010E946D0117C182E10E9417
:1019B000E70180919D0190919E010E948801809194
:1019C0009F019091A0010E9488018091A1019091B6
:1019D000A2010E9488018091DC019091DD010E94AA
:1019E00088018091DE019091DF010E948801809141
:1019F000E0019091E1010E94880180E090E00E9466
:101A000088014BC080E090E00E9488019A94911078
:101A1000F9CFE3C080E10E94E701F4ED8F2EF1E001
:101A20009F2E20E0243020F4F4018081918102C0B7
:101A300080E090E02C830E9488012C812F5FF2E0EF
:101A40008F0E911C283071F7C8C080E10E94E70119
:101A5000EAE38E2EE2E09E2EF401819191914F01F6
:101A60000E948801FAE48F16F2E09F06A9F7B5C03C
:101A700086E00E94E7016091360270913702809102
:101A80003802909139020E94970159C085E00E9466
:101A9000E7018091A7010E946D0180E090E00E9423
:101AA00088014DC08EE10E94E70174E0672E72E06C
:101AB000772E4301F301749780810E946D01F30139
:101AC0003A9780810E946D012FEF621A720AF40129
:101AD00080810E946D012610ECCF7FC08FE20E94B2
:101AE000E70188E491E013C08AE00E94E70169E120
:101AF000862E62E0962EF401819191914F010E9411
:101B00008801F3E28F16F2E09F06A9F766C00E94F3
:101B1000B30163C085E00E94E70154E2852E51E0E5
:101B2000952EF40184910E946D01FFEF8F1A9F0A98
:101B300029812811F6CF51C082E00E94E70180E0A0
:101B400090E00E94880149C088E00E94E70144E4D7
:101B5000842E41E0942EF40181914F010E946D0189
:101B6000FA81F811F8CF39C080914C0281FD19C07B
:101B70000E94D10716C080914C0281FD12C0D09204
:101B8000E901C092E8010DC080914C0281FD09C0BD
:101B900080914E02816080934E0203C080E00E94DB
:101BA000AB0780E00E94E70118C0F4018191919198
:101BB0004F010E948801F7E88F16F1E09F06A9F710
:101BC0000CC081E080934B02109261081092600873
:101BD00004C060E081E00E94C30190909604E92D6A
:101BE000F0E0EC56FB4F80810E946D019920E1F0FE
:101BF00021E092121FC08091C90080628093C900C9
:101C000019C0809199058F5F8093990587FD109287
:101C100099058091990590E0880F991F61E070E027
:101C200089569B4F0E947911909197058091990553
:101C30009813E7CFE0919604F0E0EE0FFF1FE05716
:101C4000FB4F1182108290CA81E0381619F03324BC
:101C5000339482CA26960FB6F894DEBF0FBECDBF6E
:101C6000DF91CF911F910F91FF90EF90DF90CF9078
:101C7000BF90AF909F908F907F906F905F904F90AC
:101C80003F902F9008954091AC075091AD0720915F
:101C9000AA073091AB0742175307B4F49091E800BC
:101CA0009570E1F39091E80092FD19C08093F100E6
:101CB0008091AC079091AD0701968F739927892B7E
:101CC00019F48EEF8093E8008091AC079091AD07F6
:101CD00001969093AD078093AC0781E0089580E072
:101CE0000895CF92DF92EF92FF920F931F93CF93BD
:101CF000DF931F92CDB7DEB7182F062FE42E862F65
:101D0000880F8E5F99830E94430E83E00E94430EEA
:101D1000F12EC12E9981D92E8C2D8F19801798F410
:101D2000F601E7FE02C0849101C080810E94430E4B
:101D3000182F80E00E94430E8123FFEFCF1ADF0AA5
:101D40008111EACF01C081E00F90DF91CF911F9107
:101D50000F91FF90EF90DF90CF900895DF92EF9278
:101D6000FF920F931F93CF93DF93D82E8A017B01AD
:101D7000E40EF51EEB01CE15DF0571F0D7FE03C0B2
:101D8000FE01849101C088810E94430E2196811139
:101D9000F2CF8FEF9FEF01C0C801DF91CF911F916C
:101DA0000F91FF90EF90DF900895615030F02091F7
:101DB000F100FC0120830196F8CF289884E68093F7
:101DC000C3070895CF92DF92EF92FF920F931F9374
:101DD000CF93DF936C017A018B01C0E0D0E0CE1588
:101DE000DF0589F0D8016D918D01D601ED91FC914F
:101DF0000190F081E02DC6010995892B11F47E0137
:101E000002C02196ECCFC701DF91CF911F910F91B6
:101E1000FF90EF90DF90CF9008950F931F93CF9393
:101E2000DF931F92CDB7DEB782E0898342E450E0B2
:101E300062EE71E080E80E94AE0E0E940913DC01A0
:101E400012960D911C9113970115110569F0D80197
:101E5000ED91FC910280F381E02DBE016F5F7F4F19
:101E6000C801099597FF07C089810F90DF91CF9135
:101E70001F910F910895F80100851185E5CF1F92FC
:101E80000F920FB60F921124CF92DF92EF92FF9232
:101E90000F931F932F933F934F935F936F937F9372
:101EA0008F939F93AF93BF93EF93FF93CF93DF9362
:101EB000CDB7DEB76C97DEBFCDBF1092E900809141
:101EC000E80083FFEDC168E0CE0145960E94D50E83
:101ED00082EF8093E8008D8987FF05C09091E8002C
:101EE00090FFFCCF03C09EEF9093E800982F907670
:101EF00009F0C6C09E892F89188D91110CC08038B9
:101F000029F48091A9078093F10002C01092F1009A
:101F10001092F10048C1422F50E0512B913051F402
:101F2000811141C14130510509F03DC18091A9079E
:101F30008D7F0BC0933061F4811135C14130510563
:101F400009F031C18091A90782608093A9072BC154
:101F5000953041F48091E80080FFFCCF2068209309
:101F6000E30021C1963009F05FC0EB8CFC8C10922D
:101F7000E9001092AD071092AC07123091F5109263
:101F8000AB071092AA070E940D0F99E0BE016F5F88
:101F90007F4FDB01E92F1D92EA95E9F799831A83B8
:101FA00091E09E8390EA98879AEF99872091AC07F9
:101FB0003091AD07275F3F4F3C832B838D83109279
:101FC000E9001092AD071092AC07F092AB07E092D7
:101FD000AA0749E050E080E00E94AE0E0E940D0F7B
:101FE000E2C0F092AB07E092AA070E940913DC015D
:101FF0001296ED90FC901397E114F10409F4C0C01F
:10200000D701ED91FC910480F581E02DBE016B5E5E
:102010007F4FC7010995009719F00CF0C4C0C7C0E5
:10202000F701E084F184E8CF973009F4C0C098301C
:1020300021F481E08093F100B6C0993009F0B3C07B
:10204000837009F0B4C0E3E5F1E081E021E036E31C
:102050009081992361F08093E9002093EB009191A6
:102060009093EC003093ED008F5F873089F78EE717
:102070008093EA001092EA008F898093C50793C08D
:102080008B8D9C8D1092E9001092AD071092AC07D9
:102090009093AB078093AA07898D811156C08E89D2
:1020A0009D89913A59F4813209F081C047E050E0AE
:1020B0006AE371E080E00E94AE0E75C0913209F0D3
:1020C00076C0833289F4888D90E0982F88272F89F5
:1020D000822BA0E0B0E08093360190933701A0936B
:1020E0003801B09339015FC0803269F48091E80013
:1020F00082FFFCCF67E08AE391E00E94D50E8BEF70
:102100008093E80006C0823209F04DC08F89809329
:1021100041018091A807882319F0EEEFFAE002C090
:10212000E0E0F8E080913A0190913B01A0913C0100
:10213000B0913D01803B9440A105B10509F07BC001
:102140008091410180FF93C076C00E940913DC0199
:1021500012960D911C9113970115110541F1D801AB
:10216000ED91FC910190F081E02DBE016B5E7F4FFF
:10217000C8010995811117C0F80100851185ECCFC0
:10218000113009F44EC0133091F48F89882309F47B
:1021900045C0823081F440E860E186E492E00E942C
:1021A000710E882321F08EEF8093E80079C081E2E0
:1021B0008093EB0075C0813029F440E86BE08AE33E
:1021C00092E0EDCF833099F70E940913DC0112965B
:1021D000ED90FC9013978E010F5F1F4F6801E11483
:1021E000F10479F0D701ED91FC910680F781E02DA3
:1021F000B801C7010995080F111DF701E084F184AA
:10220000EECFD8011C92F60101900020E9F731973A
:10221000BF016C197D0940E0C601C1CF64E272E0E4
:1022200002C068E272E06115710509F2FB01449198
:1022300050E080E840CF0FB6F894A89580916000F8
:10224000886180936000109260000FBEA895EE3FF9
:102250002AE0F20739F08091FE0A9091FF0A9183FB
:102260008083A1CF1092FF0A1092FE0A9CCFEE3F0E
:102270008AE0F80731F0808191819093FF0A809382
:10228000FE0A87E797E7918380839BE088E10FB69A
:10229000F894A895809360000FBE9093600083CF60
:1022A0006C960FB6F894DEBF0FBECDBFDF91CF9115
:1022B000FF91EF91BF91AF919F918F917F916F911E
:1022C0005F914F913F912F911F910F91FF90EF9050
:1022D000DF90CF900F900FBE0F901F9018950E9427
:1022E000FB2E8091C408882319F05B981092C408D3
:1022F00008959F92AF92BF92CF92DF92EF92FF929A
:102300000F931F93CF93DF936C018B018091C507CF
:10231000811103C08FEF9FEF66C08091C40780FFDB
:1023200005C08091E00082608093E000C02FD12F33
:10233000F12C8AEFE82E93E0B92E20E4922E3AE3B6
:10234000A32E209709F448C08FB7F894B092E90003
:102350009091E80095FF05C09091F200292D291B6E
:1023600001C020E08FBF21110AC0EA94EE2091F253
:1023700061E070E080E090E00E94DE02E2CF822F18
:1023800090E0C817D9070CF42C2F8FB7F894B092AF
:10239000E9009091E80095FF1DC0422F50E0C41B5A
:1023A000D50BF601215020F091919093F100FACFD6
:1023B000C40ED51EFF2019F0A092E8000AC090912B
:1023C000E80095FD07C0A092E800FF24F394209751
:1023D00009F0F12C8FBFB5CFF110B6CF5D9884E630
:1023E0008093C208C801DF91CF911F910F91FF9098
:1023F000EF90DF90CF90BF90AF909F900895909115
:10240000C507911103C08FEF9FEF08954FB7F89460
:1024100092E09093E9002091F20030E0121613064A
:1024200014F421E030E02115310551F0289884E6BC
:102430008093C3078091F1009091F200992331F0CD
:102440004FBF21303105F9F690E008959BE6909357
:10245000E800F6CF83E08093E9008091F2008823C2
:1024600019F08AE38093E80008959FB7F89482E01A
:102470008093E9008091F2009FBF0895CF92DF9290
:10248000EF92FF920F931F93CF93DF93E091BF07DB
:10249000E11117C0E1E0E093BF0790939B088093A0
:1024A0009A0870939D0860939C0850939F084093EE
:1024B0009E081093A1080093A0083093A3082093CE
:1024C000A208E0918C08E33030F5F0E0EE0FFF1F3A
:1024D000E656F74FC081D181209709F44CC0E090B7
:1024E000A208F090A3088091C408811165C00E94E1
:1024F000180300917B0810917C0820917D08309191
:102500007E080E0D1F1D211D311D601771078207EA
:10251000930718F530C0C0907B08D0907C08E090FD
:102520007D08F0907E080E9418032091A008309149
:10253000A108DC01CB01821B930BA109B109C816CC
:10254000D906EA06FB06B8F410928C081092BF0771
:102550001092AE071092B50725C081E08093C408A1
:102560005B9A0E94180360937B0870937C088093A9
:102570007D0890937E089091730880918C0891302B
:1025800051F0E82FF0E0EE0FFF1FE656F74F2081E5
:102590003181232BA9F5833018F48F5F80938C0849
:1025A00010927308DF91CF911F910F91FF90EF90E0
:1025B000DF90CF900C9471110E94180300917B085A
:1025C00010917C0820917D0830917E080C0F1D1F12
:1025D000211D311D601771078207930760F2109269
:1025E000C4085B980E94180360937B0870937C0872
:1025F00080937D0890937E0881E080937308BBCF21
:10260000DF91CF911F910F91FF90EF90DF90CF90CE
:10261000089580916A0881110DC082E08093660858
:1026200084E080936708109269081092680881E03E
:1026300080936A0886E698E008951F920F920FB67D
:102640000F9211242F933F934F935F936F937F9338
:102650008F939F93AF93BF93CF93EF93FF93C091CB
:10266000E1008091E100837F8093E100C3FF0FC010
:102670001092E90081E08093EB001092EC0082E37D
:102680008093ED001092C50788E08093F000C2FFB0
:1026900018C00E942A128091C208882339F08091C4
:1026A000C20881508093C208882389F18091C307B2
:1026B000882339F08091C30781508093C307882312
:1026C00041F1C4FF10C08091E2008E7E8160809352
:1026D000E2008091E1008F7E8093E1008091C40749
:1026E0008E7E806111C0C0FF16C08091E2008E7E98
:1026F00080618093E2008091E1008E7E8093E10012
:102700008091C4078E7E81608093C40704C05D9A67
:10271000CDCF289AD6CFFF91EF91CF91BF91AF91B6
:102720009F918F917F916F915F914F913F912F91E9
:102730000F900FBE0F901F901895CF93DF93CDB7DA
:10274000DEB7C154D1090FB6F894DEBF0FBECDBFBE
:102750007894109281008091810082608093810042
:1027600080918100816080938100809180008160F0
:10277000809380008091910082608093910080918D
:102780009100816080939100809191008860809396
:102790009100809190008160809390008091710001
:1027A0008160809371008091C10084608093C1003A
:1027B0008091C10082608093C1008091C1008160DE
:1027C0008093C1008091C30081608093C300809199
:1027D000C00082608093C0008091C20081608093BD
:1027E000C20080917A00846080937A0080917A00A0
:1027F000826080937A0080917A00816080937A0071
:1028000080917A00806880937A001092C5071092B8
:10281000A9071092C4078091D70081608093D700E8
:1028200080EA8093D80089B5806189BD89B58260CE
:1028300089BD09B400FEFDCF61E070E080E090E06A
:102840000E94DE028091D8008F7C80618093D80046
:102850008091E000807F8093E0008091E1008E7E97
:102860008093E1008DE08093E200559A209AEEEF8C
:10287000FFE7859194918B3F9C4D19F481E0809303
:10288000A80710925A0810925B0810925C081092E8
:102890005D08109218081092190810921A081092E8
:1028A0001B0860ED77E080E090E00E94DE0286EC9D
:1028B00097E090935908809358080BE110E0F0904E
:1028C00041016AE070E080E090E00E94DE02F110D9
:1028D0000AC00150110939F064E670E080E090E030
:1028E0000E94DE02ECCFE0915808F09159088FEF7A
:1028F0009FEF958784870E94180360931808709350
:10290000190880931A0890931B0880915808909199
:102910005908DC01ED91FC910280F381E02D41E149
:1029200050E06BE671E009956AE070E080E090E0CD
:102930000E94DE0281E080932C0810927E0180913B
:10294000E2008B7F8093E20082E08093C8001092C7
:10295000CD0080E18093CC008091C900886980938C
:10296000C900539A61E089E00E94510261E08AE067
:102970000E94510261E085E00E94510261E086E020
:102980000E9451028091800082608093800080913B
:1029900080008E7F8093800080918100817F809372
:1029A0008100809181008161809381008091860007
:1029B000909187008F6F9F6390938700809386002C
:1029C0008091800080688093800080918000806288
:1029D000809380008091C40080648093C4008091C3
:1029E000C1008D7F8093C1008091C100856080937C
:1029F000C1008091C30081608093C30083E0809315
:102A0000BF008FEF8093D1008091C00082648093DB
:102A1000C0008091C20089608093C20080EE9BEF6D
:102A20009093D5018093D4019093D7018093D601E0
:102A30009093D9018093D8019093DB018093DA01C0
:102A40000E9458056CE271E080E090E00E94DE0296
:102A5000109289010E9472064EE050E060E070E042
:102A600089E891E00E941D2CE9E8F1E085E52DE080
:102A7000822E8E0E8BAE9BAC9E1619F09191890F13
:102A8000FACF90919601891741F01092890188E858
:102A900093E190938B0180938A010E94720640918A
:102AA00089014F5F68E282E00E94460668EC70E0B0
:102AB00080E090E00E94DE0264E670E080E090E05A
:102AC0000E94DE02589859981092B9001CE01093A9
:102AD000B80084E08093BC0064E670E080E090E0A1
:102AE0000E94DE021093B80040E86BE688E60E9480
:102AF000FF0365E070E080E090E00E94DE0243E0CA
:102B00006BE688E60E94FF0342E06AE188E60E94E5
:102B1000FF0348E16BE188E60E94FF0342E067E3C0
:102B200088E60E94FF036AE070E080E090E00E9487
:102B3000DE026AE070E080E090E00E94DE0226E1C2
:102B400030E048EA52E06AEA87E70E94480488EAEF
:102B500092E0FC013196DC01AE17BF0730F42C91F6
:102B600030813D9320833197F7CF029612E08E3B60
:102B7000910779F765E070E080E090E00E94DE0266
:102B80000E9430048091DA039091DB03A091DC0372
:102B9000B091DD0388579C4EAF4FBF4F8093C50265
:102BA0009093C602A093C702B093C80240E16CE1C3
:102BB00088E60E94FF0300E012E0109320030093D8
:102BC0001F0388ED90E0909312038093110380918E
:102BD0004C02846080934C020E94B80270937B0385
:102BE00060937A031093A6010093A50188EC90E00E
:102BF000909388018093870180917A00846080930C
:102C00007A0080917A008D7F80937A0080917A009B
:102C10008E7F80937A0080914D02806880934D0270
:102C200061E084E00E94510261E08CE00E94510268
:102C300061E088E00E94510261E08BE00E94510255
:102C400060E087E10E94510283E084BD89E085BD98
:102C50008AEF87BD8AEE91E095E0892E880E229654
:102C60008FAE229780914C0281FF92C080914B02DF
:102C7000882309F48DC080914A02811140C080915F
:102C80004002909141028F35954094F48091420129
:102C9000909143019093410280934002813D27E04F
:102CA00092076CF50196909343018093420127C0EF
:102CB00081E080934A028091DA039091DB03A09136
:102CC000DC03B091DD038093D6039093D703A093E8
:102CD000D803B093D9038091360290913702A09126
:102CE0003802B091390286509F4FAF4FBF4F80934B
:102CF000320290933302A0933402B0933502809154
:102D00004A02882309F444C08091DA039091DB03DE
:102D1000A091DC03B091DD034091D6035091D7031D
:102D20006091D8037091D903841B950BA60BB70B48
:102D300080383FE4930732E1A307B10548F480915E
:102D4000420190914301909341028093400220C040
:102D50002091620830916308309341022093400231
:102D6000803A904FA941B10598F03093D503209354
:102D7000D4038091640890916508909343018093F7
:102D8000420110924B0210924A0281E0809331027C
:102D900087E10E948D029093D3038093D203892B05
:102DA000A9F480912101882389F08091D1038F5F5C
:102DB0008093D103109221010E9418036093CD03E8
:102DC0007093CE038093CF039093D0030E94180397
:102DD0006093C9037093CA038093CB039093CC0391
:102DE0000091CD031091CE032091CF033091D003F9
:102DF000DC01CB01801B910BA20BB30B8093C503AD
:102E00009093C603A093C703B093C803843C994032
:102E1000A105B10520F081E08093210102C010924C
:102E200021018091D1038230D1F060F4882399F0A0
:102E3000813009F061C02C985C985E9A1092C403AE
:102E40002EE313C0833001F1843009F055C081E0D6
:102E50008093C4035BC02C9A5C985E9855C02C98F4
:102E60005C9A5E981092C40324E52093F0019EE1E1
:102E70009093FA0187E1809304022093F1019093EB
:102E8000FB018093050242C081E08093C4038091DE
:102E90005E0890915F081816190674F4809140023C
:102EA00090914102883E63E0960734F00197909339
:102EB0004102809340022AC080916008909161088D
:102EC00097FF03C09195819591090297FCF01092AC
:102ED00041021092400281E090E090939D03809324
:102EE0009C030E941803609394037093950380934E
:102EF0009603909397030AC01092D10381E090E06B
:102F00009093200180931F011092C4038091C40309
:102F1000882309F49CC08091C2039091C303892B3C
:102F2000E1F480911F019091200181309105A9F475
:102F30002C985C9A5E989093C3038093C20310927E
:102F4000200110921F010E9418036093BE0370932A
:102F5000BF038093C0039093C1030E941803609342
:102F6000BA037093BB038093BC039093BD0300919D
:102F7000BE031091BF032091C0033091C103DC0157
:102F8000CB01801B910BA20BB30B8093B6039093E4
:102F9000B703A093B803B093B90387379140A10555
:102FA000B105B8F08091C2039091C303019789F4F1
:102FB0002C985C985E981092C3031092C2030E94F2
:102FC00018036093B2037093B3038093B403909398
:102FD000B5030E9418036093AE037093AF03809310
:102FE000B0039093B1030091B2031091B303209109
:102FF000B4033091B503DC01CB01801B910BA20B14
:10300000B30B8093AA039093AB03A093AC03B0934C
:10301000AD0387379140A105B105C8F08091C20387
:103020009091C303892B99F42C985C9A5E9881E067
:1030300090E09093C3038093C2030E9418036093AF
:10304000BE037093BF038093C0039093C10380912C
:103050003002882309F446C080911D0190911E0121
:10306000019789F410921E0110921D0184B58064AD
:1030700084BD0E9418036093A6037093A7038093F6
:10308000A8039093A9030E9418036093A20370936E
:10309000A3038093A4039093A5030091A60310912A
:1030A000A7032091A8033091A903DC01CB01801B69
:1030B000910BA20BB30B80939E0390939F03A0935D
:1030C000A003B093A103892B8A2B8B2B59F084B5D5
:1030D0008F7B84BD1092300281E090E090931E01BE
:1030E00080931D0180919C0390919D03892B59F140
:1030F0000E941803609398037093990380939A0336
:1031000090939B0300919403109195032091960353
:1031100030919703DC01CB01801B910BA20BB30B09
:103120008093900390939103A0939203B0939303A1
:1031300088389341A105B10530F01092D103109267
:103140009D0310929C030E9481088091DA03909164
:10315000DB03A091DC03B091DD0340918C0350911F
:103160008D0360918E0370918F03481759076A078A
:103170007B0708F0F9C1805E914BAF4FBF4F809342
:103180008C0390938D03A0938E03B0938F03809153
:103190000D0190910E0190933B0280933A02809131
:1031A0000F019091100190933D0280933C02809119
:1031B00011019091120190933F0280933E02809101
:1031C0004B02811119C0809113019091140120913B
:1031D000D4033091D5032817390770F41092D50322
:1031E0001092D40310923102809113019091140136
:1031F00090934102809340028091150190911601B5
:10320000909343028093420280911701909118019C
:1032100020918A0330918B032817390771F0809130
:103220001701909118019093450280934402909366
:103230008B0380938A03109231028091190190913F
:103240001A01909347028093460280911B0190914E
:103250001C01909349028093480280912E02909124
:103260002F02CD97D4F180914C0281FF36C08CEDB6
:1032700095E090933B0280933A0290933D028093B5
:103280003C0290933F0280933E02809124029091F1
:10329000250220914002309141022817390714F489
:1032A00088EE93E0909341028093400280912E0239
:1032B00090912F02853091403CF00E942F08809120
:1032C0004C028E7F80934C028091880390918903F9
:1032D0000196909389038093880380912E029091A8
:1032E0002F02CD9734F080914C0281FD02C00C94E6
:1032F000562A80912E0290912F02019690932F02D0
:1033000080932E02EAE3F2E010E0812F90E09595A1
:10331000879595958795182F219131912D3444E00B
:10332000340724F010682C3637400CF4106462E047
:10333000E234F60751F780918703181308C0809193
:1033400086038A3F30F48F5F8093860302C0109219
:1033500086031093870380914002909141028D343F
:10336000944044F5109281031092800310928303DD
:1033700010928203109285031092840310927D03B1
:1033800010927C0310927F0310927E0380911902A9
:1033900090911A02892B71F09091EA0180914C0270
:1033A000992329F080FF03C00E94430803C081FDD8
:1033B0000E942F0880918603843171F480914C0221
:1033C00081FF11C08091190290911A02892B21F47A
:1033D0001F3511F40E942F08A2E4B2E080E090E0D3
:1033E000E0E0F0E05FC0173569F480E092E0909390
:1033F000A6018093A5018AE090E0909388018093D4
:10340000870109C01B3639F40E94B80270937B0310
:1034100060937A03E1CF8091190290911A02892B6F
:1034200029F41F3619F40E944308D6CF173939F40E
:1034300080E092E09093E9018093E801CDCF173AC4
:1034400031F480914E02816080934E02C5CF1B3BC8
:1034500031F48091170290911802029607C0173B31
:1034600059F48091170290911802029790931802D4
:10347000809317020C945F2A1E3B31F48091150251
:1034800090911602029608C01D3B09F0A5CF8091CD
:1034900015029091160202979093160280931502DE
:1034A0000C945F2A6D917D9141E050E0653A16E001
:1034B000710714F440E050E09C012E5F3F4F7A0109
:1034C00002C0EE0CFF1C2A95E2F701E010E0643127
:1034D00025E0720714F000E010E0A801082E02C0F9
:1034E000440F551F0A94E2F74E295F296551754034
:1034F00021E030E06F38714010F020E030E0BC0196
:103500006F5F7F4F02C0220F331F6A95E2F7422B95
:10351000532BE42BF52B03968C30910519F629E1FA
:1035200032E06AEE71E0D9018D919D919D018E236B
:103530009F2341E0892B09F440E0DB014D93BD015D
:1035400022968FAC22978A12EECF8091EB018111E7
:103550000C94662A80912E0290912F02CD9714F040
:103560000C94662A0C94DC2A20916B03253018F009
:10357000255020936B0320916B03223009F45CC229
:1035800028F4222351F0213059F0BDC4233009F42E
:10359000B0C4243009F4B2C4B6C421E020936B0354
:1035A00020916B032F5F20936B034091C5025091D4
:1035B000C6026091C7027091C80284179507A607DA
:1035C000B70708F439C28059984EAF4FBF4F809368
:1035D000C5029093C602A093C702B093C8028CE0C4
:1035E0008093B8008091C40281117EC08FEE0E944A
:1035F000E30384EC8093BC000E94C4038091BB0071
:103600008093BF0204E80093BC000E94C403809131
:10361000BB0014E91093BC008093BE0244EF64EF3A
:1036200087E70E94FF038EEE0E94E30386EF8093FC
:10363000BB000093BC000E94C4031093BC0081E057
:103640008093C402E091A30221E02E0F253109F4FA
:1036500020E08091A4029091A502A091A602B091D1
:10366000A70214E0E19FF0011124E15BFD4F80838C
:103670009183A283B3834091EF025091F002609155
:10368000F1027091F202840F951FA61FB71F34E05C
:10369000239FF0011124E15BFD4F40815181628144
:1036A0007381841B950BA60BB70B8093EF0290934D
:1036B000F002A093F102B093F2022093A302809152
:1036C000C5029091C602A091C702B091C802885F5E
:1036D0009D4AAF4FBF4F8093C5029093C602A093FF
:1036E000C702B093C8020FC48FEE0E94E30314EC2C
:1036F0001093BC000E94C4038091BB008093C2025F
:103700001093BC000E94C4038091BB008093C1024F
:1037100084E88093BC000E94C4038091BB0094E9BC
:103720009093BC008093C0020E9430042091BE029E
:103730003091BF02A90160E070E08091B2029091E7
:10374000B3029A01AB01281B390B41095109A09121
:10375000B002B091B1020E94772C6B017C01FFE0B6
:10376000F594E794D794C794FA95D1F76091BA028B
:103770007091BB02CB01770FAA0BBB0BBC01CD0133
:10378000ABE0660F771F881F991FAA95D1F720918C
:10379000BC023091BD028901330F220B330BA9010A
:1037A00098012C0D3D1D4E1D5F1D0E94BF2EC20EA7
:1037B000D31EE41EF51EAAE0B0E0A70196010E9408
:1037C000772CDC01CB010896A11DB11D14E0B59545
:1037D000A795979587951A95D1F78093E7029093CF
:1037E000E802A093E902B093EA0240EAC41A4FE06B
:1037F000D40AE108F108A7019601C701B6010E94A9
:10380000452C4B015C010CE0B594A79497948794E8
:103810000A95D1F78D869E86AF86B88A8090A802D9
:103820009090A902A091AC02B091AD020E94ED2E41
:103830002B013C018DE075946794579447948A95C9
:10384000D1F7A091B402B091B5022D853E854F8588
:1038500058890E94ED2EBB2797FDB095AB2F840DA4
:10386000951DA61DB71D0296A11DB11D32E0B5958F
:10387000A795979587953A95D1F79C01AD0130585A
:103880004F4F5F4FA091AE02B091AF020E94772CD4
:103890002B013C014FE076946794579447944A95E6
:1038A000D1F78091C0029091C102A091C202B09163
:1038B000C3029C01AD0165E0569547953795279564
:1038C0006A95D1F7298B3A8B4B8B5C8B092C000CBA
:1038D000AA08BB0872E0880C991CAA1CBB1C7A952C
:1038E000D1F7A091B602B091B7022D853E854F85E4
:1038F00058890E94ED2E9B01AC01EBE05595479550
:1039000037952795EA95D1F72D873E874F87588BB6
:10391000A091AA02B091AB02A70196010E94ED2EE0
:10392000DC01CB01FBE0B595A79597958795FA95B6
:10393000D1F74D855E856F857889840F951FA61F09
:10394000B71F880D991DAA1DBB1D13E0880F991F75
:10395000AA1FBB1F1A95D1F7BC01CD016E5F7F4F27
:103960008F4F9F4F24E030E040E050E00E94BF2E98
:1039700089889A88AB88BC88821A930AA40AB50AF7
:10398000A5019401AAE6B8E10E94772C97FD0BC02F
:10399000660F771F881F991FA30192010E94552C63
:1039A00069017A010AC0A30192010E94552C6901A4
:1039B0007A01CC0CDD1CEE1CFF1C9927F7FC9A95B4
:1039C0008F2D7E2D6D2D9B01AC010E94452C9B01FE
:1039D000AC01AEEDBBE00E94772C4C01BB2497FC00
:1039E000B094AB2CA3E4B3EEA70196010E94F02E95
:1039F000BB2797FDB095AB2F880E991EAA1EBB1E44
:103A00001FEC810E1EE0911EA11CB11C44E0B59478
:103A1000A794979487944A95D1F7C80CD91CEA1CAF
:103A2000FB1CC092A402D092A502E092A602F092E2
:103A3000A7021092C40267C280916B038F5F8093CC
:103A40006B030E94B8022091F3023091F4025B01F3
:103A5000A21AB30A28EAA21621E6B20608F449C25D
:103A60007093F4026093F302009187011091880132
:103A700001151105C1F16091EF027091F002809182
:103A8000F1029091F2020E94242B0E94F22D609389
:103A9000EB027093EC028093ED029093EE02809122
:103AA000E7029091E802A091E902B091EA02BC011C
:103AB000CD016D5475498F4F9F4F0E94242B2EE8E6
:103AC0003BE24AEE51E40E945F2B6093E302709365
:103AD000E4028093E5029093E602015011091093ED
:103AE0008801009387016091EF027091F00280914C
:103AF000F1029091F2020E94242B0E94F22D9B0170
:103B0000AC016091EB027091EC028091ED0290911A
:103B1000EE020E94912C2091E3023091E402409148
:103B2000E5025091E6020E945F2B0E94752D6B0109
:103B30007C016093DF027093E0028093E102909336
:103B4000E2022091360230913702409138025091C2
:103B50003902A3E0B0E00E94772CC60ED71EE81E03
:103B6000F91ECC0CDD1CEE1CFF1C03E0F594E79461
:103B7000D794C7940A95D1F7C0923602D0923702F3
:103B8000E0923802F09239024091320250913302B1
:103B900060913402709135024D875E876F87788B14
:103BA000DB01CA018C199D09AE09BF098C395FEF91
:103BB0009507A507B5075CF085369105A105B10508
:103BC00024F084E690E0A0E0B0E01C0104C0BCE971
:103BD0002B2E33243A94A0919D01B0919E01209107
:103BE00005033091060340910703509108030E949A
:103BF000ED2E2B013C01A0919F01B091A0012091DD
:103C0000090330910A0340910B0350910C030E9469
:103C1000ED2E460E571E681E791EA091A101B0918F
:103C2000A20120910D0330910E0340910F0350919A
:103C300010030E94ED2E640D751D861D971D0E94B8
:103C4000242B2091010330910203409103035091F2
:103C500004030E945F2B0E94752D20914C0221FDD0
:103C600014C04091DD025091DE029A01A3E0359527
:103C70002795AA95E1F7DA01A21BB30B9D01260F48
:103C8000371F3093DE022093DD022091DD02309158
:103C9000DE02F3E035952795FA95E1F78B01021BDB
:103CA000130B8091D50281111BC060911F0370918D
:103CB000200380E090E00E94222B9B01AC0168EA87
:103CC00079E880E89AE30E94032D6093D102709313
:103CD000D2028093D3029093D40281E08093D502E4
:103CE000B50180E090E00E94222B4B015C01B801FD
:103CF000110F880B990B0E94242B2091D102309137
:103D0000D2024091D3025091D4020E945F2BA501B0
:103D100094010E945F2B2091CD023091CE02409100
:103D2000CF025091D0020E94922C2B013C01809135
:103D3000C9029091CA02A091CB02B091CC02A70116
:103D40009601281B390B4A0B5B0BCA01B9010E9473
:103D5000242B20E034E244E759E40E945F2BA501C4
:103D600094010E94032D0E94752DC092C902D09229
:103D7000CA02E092CB02F092CC026D3231E07307BE
:103D800014F06CE271E08B01643D7E4F14F404ED9D
:103D90001EEFC8010996439760F0101611061CF437
:103DA0000A50110908C00115110529F0065F1F4FBF
:103DB00002C000E010E026EF38E24CE75FE3C30109
:103DC000B2010E945F2B6B017C01B801110F880BBF
:103DD000990B0E94242B2FE832EC45E75CE30E940C
:103DE0005F2B9B01AC01C701B6010E94922C4B01D5
:103DF0005C016093CD027093CE028093CF029093CA
:103E0000D002B101330C880B990B0E94242BA50121
:103E100094010E94912C0E94752D6B017C01809170
:103E2000F30190E08C9D80018D9D100D9C9D100DE7
:103E30001124A801440F452F441F550B493C51053F
:103E400014F048EC50E048336FEF560714F448E3A1
:103E50005FEF8091FD0190E08C9D80018D9D100DA4
:103E60009C9D100D112476E0159507957A95E1F744
:103E700080916E0390916F03080F191F013375E74E
:103E8000170714F000E315E7003D8AE8180714F45B
:103E900000ED1AE810936F0300936E03012F110FCA
:103EA000110B040F151F093C110514F008EC10E06C
:103EB00008339FEF190714F408E31FEF10936D0305
:103EC00000936C03C501B4010E94752D70938001AD
:103ED00060937F01D0928201C0928101109384018E
:103EE00000938301AD85BE85B0938601A0938501C3
:103EF0000AC080916B038F5F80936B0380916B038B
:103F00008F5F80936B0326E030E047E951E06BE37D
:103F100088E60E9448048091970190E0982F8827B6
:103F200020919801822B919581959109B3E0959507
:103F30008795BA95E1F790932203809321038091AE
:103F4000990190E0982F882720919A01822B9195D2
:103F50008195910903E0959587950A95E1F79093EE
:103F600024038093230380919B0190E0982F88275E
:103F700020919C01822B33E0959587953A95E1F746
:103F800090932603809325038091E8019091E901A5
:103F9000009709F49BC0E5EFF2E001E213E02AE8A4
:103FA00031E08115B2E09B0721F410821182128268
:103FB0001382D8014D915C911197052E000C660B70
:103FC000770BC080D180E280F3804C0D5D1D6E1DAB
:103FD0007F1D41935193619371931D921D928D01A9
:103FE000D9011D921D929D01B3E0E130FB07C9F696
:103FF000019709F062C08091F5029091F602A091BC
:10400000F702B091F80279E0B595A7959795879555
:104010007A95D1F790938B0180938A018091F90270
:104020009091FA02A091FB02B091FC02E9E0B595F3
:10403000A79597958795EA95D1F790938D018093F1
:104040008C018091FD029091FE02A091FF02B0913F
:104050000003F9E0B595A79597958795FA95D1F75F
:1040600020911F0330912003821B930B90938F01AB
:1040700080938E011092160210921502109218026F
:1040800010921702E9E8F1E085E58BAC8E1619F085
:104090009191890FFACF809396014EE050E060E055
:1040A00070E089E891E00E942D2C41E064E18FE00E
:1040B0000E94460681E08093B5078091E8019091C7
:1040C000E90101979093E9018093E8018091210330
:1040D0009091220320918A0130918B01821B930BD6
:1040E00090932203809321038091230390912403D2
:1040F00020918C0130918D01821B930B90932403AE
:1041000080932303809125039091260320918E01B3
:1041100030918F01821B930B90932603809325038C
:104120000E94B8026B017C018091270390912803C3
:10413000B601681B790B80E090E00E94222B24E8F6
:1041400036ED46EA51E30E945F2B2B013C01D092F1
:104150002803C09227032EEC31E03E8F2D8FAE0155
:104160004F5F5F4F5E874D8761E2262E63E0362EFC
:1041700060E071E078A36F8F8DE991E09A8F898F6D
:104180009E8B8D8B8901C12CD12C7601F801619118
:1041900071918F01072E000C880B990B0E94242B24
:1041A000A30192010E945F2BAD85BE856D937D9327
:1041B0008D939D93BE87AD87EF8DF8A1808191810E
:1041C000A281B381F101219131911F014C015D0167
:1041D00044E0B594A794979487944A95D1F7AC019D
:1041E000BD01481959096A097B09C901330FAA0B96
:1041F000BB0B840F951FA61FB71FEF8DF8A18193EE
:104200009193A193B193F8A3EF8F54E0B595A7953F
:10421000979587955A95D1F7ED89FE89819391936A
:10422000FE8BED8B9C01DC010E94DE2EC60ED71E9C
:10423000E81EF91EF1E0043D1F0709F0A7CFA4E630
:10424000B0E0A70196010E94772C6B017C01A09140
:104250001F03B09120039D010E94822C9B01AC01A1
:10426000C701B6010E94BF2E2F8F38A349A35AA3BE
:104270008090130390901403A0901503B090160340
:104280008D869E86AF86B88A80901703909018031B
:10429000A0901903B0901A03898A9A8AAB8ABC8AC3
:1042A000C0901B03D0901C03E0901D03F0901E03F0
:1042B00049805A806B807C808D809E80AF80B884DE
:1042C0008D8A9E8AAF8AB88E2D853E854F85588906
:1042D000C301B2010E945F2B4B015C0129893A891D
:1042E0004B895C896D897E898F89988D0E945F2BAF
:1042F0009B01AC01C501B4010E94922C9B01AC0151
:10430000C701B6010E94912C60931B0370931C039C
:1043100080931D0390931E0389849A84AB84BC848C
:10432000A7019601C301B2010E945F2B2B013C0142
:1043300029893A894B895C89C501B4010E945F2BA8
:104340009B01AC01C301B2010E94912C9B01AC0105
:104350006D857E858F8598890E94922C60931303CA
:10436000709314038093150390931603A70196018D
:104370006D897E898F89988D0E945F2B6B017C01EE
:104380002D853E854F855889C501B4010E945F2B5C
:104390009B01AC01C701B6010E94922C9B01AC01AC
:1043A00069897A898B899C890E94922C6093170372
:1043B000709318038093190390931A03409111038B
:1043C0005091120320919D0130919E0137FF03C04F
:1043D00031952195310980914D0224173507A8F4B4
:1043E00020919F013091A00137FF03C031952195A5
:1043F00031092417350748F42091A1013091A20119
:104400001216130614F4806801C08F7780934D0252
:104410008F8D98A1A9A1BAA189549109A109B109C7
:10442000CC97A105B10508F439C1609113037091CF
:10443000140380911503909116030E94752D6D87CA
:104440007E878F87988B6093050370930603809314
:1044500007039093080360911703709118038091EC
:10446000190390911A030E94752D698B7A8B8B8B9F
:104470009C8B6093090370930A0380930B039093C2
:104480000C0360911B0370911C0380911D0390919C
:104490001E030E94752D6D8B7E8B8F8B988F609382
:1044A0000D0370930E0380930F03909310032D85DB
:1044B0003E854F855889CA01B9010E94452C6B0180
:1044C0007C012D893E894F89588DCA01B9010E940E
:1044D000452C26013701460E571E681E791EC30162
:1044E000B2010E94242B698F7A8F8B8F9C8F898DCC
:1044F0009A8DAB8DBC8DB595A79597958795FFED5A
:10450000CF2EF9E5DF2EF7E3EF2EFFE5FF2EC81AD9
:10451000D90AEA0AFB0A20E030E040E05FE3C70185
:10452000B6010E945F2B4B015C01A7019601698DCA
:104530007A8D8B8D9C8D0E945F2BA70196010E9426
:104540005F2B9B01AC0160E070E080E490E40E948E
:10455000912C9B01AC01C501B4010E945F2B6F8FB0
:1045600078A389A39AA329893A894B895C89CA01CE
:10457000B9010E94452C640D751D861D971D0E9472
:10458000242B4B015C01DC01CB01B595A7959795D8
:1045900087950FEDC02E09E5D02E07E3E02E0FE53D
:1045A000F02EC81AD90AEA0AFB0A20E030E040E0FF
:1045B0005FE3C701B6010E945F2B2B013C01A701FD
:1045C0009601C501B4010E945F2BA70196010E94CC
:1045D0005F2B9B01AC0160E070E080E490E40E94FE
:1045E000912C9B01AC01C301B2010E945F2B60932F
:1045F00001037093020380930303909304032D89B6
:104600003E894F89588D6D857E858F8598890E945A
:1046100095059093E3018093E201298D3A8D4B8DAE
:104620005C8D6F8D78A189A19AA10E945F2B0E9459
:10463000752D9B01AC0169897A898B899C890E94BF
:1046400095059093E5018093E4010E94A204809176
:10465000CE019091CF019A8389838091D00190916E
:10466000D1019C838B838091D2019091D3019E8351
:104670008D830E94B802609348037093490380932E
:104680004A0390934B03A0904002B09041021CED6E
:10469000A11615E0B1060CF44DC032C003E113E0E1
:1046A000A98DBA8DED90FD90BA8FA98F20E030E0F2
:1046B00046E154E4F80160817181828193810E9416
:1046C0005F2B4B015C01B701FF0C880B990B0E941B
:1046D000242B9B01AC01C501B4010E94922C20E067
:1046E00037E14AED5AE30E945F2BD8016D937D9329
:1046F0008D939D938D01B3E00F311B0789F695CE05
:1047000090911202E0EDAE16E7E0BE0684F4A5013A
:104710004C5D5540949F9001959F300D1124C90127
:1047200064EF71E00E94972E44E6461B04C044E605
:10473000491B01C044E680911002682E712C8091C3
:104740001102482E512C6AE3262E62E0362E27E60F
:1047500033E03CAB2BAB74E0872E72E0972E62E522
:1047600073E07EAB6DAB82E793E09A8F898FFC019B
:104770007A8B698B27E633E03E872D8710E004E6CD
:10478000D101ED90FD901D01BDEDEB16B5E0FB06EE
:1047900034F020EDE21627E0F20664F008C02CEDBC
:1047A00035E02E193F09243F51E0350734F024EF5E
:1047B00031E003C097012C5D3540123009F443C04D
:1047C000C90164E670E00E94972EDB01AA0FBB1FAF
:1047D000AE53BE4FCD90DC90DB01AA0FBB1FAC5394
:1047E000BE4F0D90BC91A02DAC19BD09069FC00114
:1047F000079F900D1124B901681B790BA69FC0017A
:10480000A79F900DB69F900D112464E670E00E9462
:10481000972E6C0D7D1D71836083269DC001279DA1
:10482000900D369D900D112464EF71E00E94972E3B
:10483000802F861B849FC001112464E670E00E94D3
:10484000972E262F0FC031832083249DC001259DE4
:10485000900D349D900D112464EF71E00E94972E0D
:10486000202F261BD40154978C91289FC00111241E
:1048700064E670E00E94972EAD85BE856D93BE877D
:10488000AD87D4018D914D01289FC001112464E6AC
:1048900070E00E94972EA989BA896D93BA8BA98B73
:1048A000BCEDEB16B5E0FB063CF48081918191955F
:1048B00081959109918380831F5F3296133009F0AF
:1048C0005FCFECE4AE16E4E0BE064CF09501F1EDEE
:1048D000AF16F7E0BF062CF020ED37E002C02CE465
:1048E00034E02C543440A8EEB3E00E94822C24E83B
:1048F00033E040E050E00E94552C89019A01C80144
:1049000064E670E00E94972EFB01EE0FFF1FE45556
:10491000FE4F0190F081E02DDB01AA0FBB1FA255D5
:10492000BE4F4D915C914E1B5F0BA4E6A69FC0014C
:10493000A79F900D1124081B190B409FC001419F98
:10494000900D509F900D112464E670E00E94972E08
:10495000E60FF71FF0937903E093780380914D02FF
:1049600083FF73C06091A8017091A9017195619551
:104970007109072E000C880B990B0E94242B29E348
:104980003AEF4EE85CE30E945F2B6B017C010E94D2
:10499000FE2C6D877E878F87988BC701B6010E949A
:1049A0003A2E2B013C016091740370917503072E20
:1049B000000C880B990B0E94242B4B015C01609129
:1049C000720370917303072E000C880B990B0E94E1
:1049D000242B6B017C012D853E854F8558890E94D3
:1049E0005F2B698B7A8B8B8B9C8BA3019201C5010A
:1049F000B4010E945F2B9B01AC0169897A898B8984
:104A00009C890E94912C0E94752D70937303609372
:104A100072032D853E854F855889C501B4010E94DA
:104A20005F2B4B015C01A3019201C701B6010E94FB
:104A30005F2B9B01AC01C501B4010E94922C0E9426
:104A4000752D709375036093740380913F038F5F9E
:104A500080933F0366E00E948B2E911127C0109136
:104A60003E0381E0810F80933E0385E10E948D0229
:104A70001770E12FF0E0EE0FFF1FE25DFC4F918316
:104A80008083EEE2F3E080E090E021913191820FAB
:104A9000931F13E0EE33F107C1F7880F991F609160
:104AA000260270E00E94972E6093A70180912E024B
:104AB00090912F02CD978CF080914C0281FF0DC018
:104AC00081E08093AF0780912E0290912F02853074
:104AD00091401CF082E08093AF0780912E0290916C
:104AE0002F02CD9724F080914C0281FF69C58091FF
:104AF0002E0290912F02892B11F41092AF07809112
:104B0000EE01882321F081E08093B10702C010926A
:104B1000B10790910C0180912902981710F484E05C
:104B200012C08091A70190912702981720F09091D0
:104B30002A02891718F41092B40707C0909128022E
:104B4000981768F782E08093B4078091A301909151
:104B5000A40101968636910520F081E08093B70785
:104B600002C01092B70781E0809329038091AF07BC
:104B7000823019F400ED17E06AC0813021F0809195
:104B8000B607813069F402E310E022E330E048EC3C
:104B900050E068EC70E082E390E00E943E1285C035
:104BA0008091AE07813049F400E010E022E330E06C
:104BB00040E050E060E070E0EECF823019F400E0B9
:104BC00010E01DC0833018F000E010E00DC08091AF
:104BD000B007823019F402E310E011C08091B107F0
:104BE000813039F402E310E022E330E042E350E0A8
:104BF00019C08091B207813039F408E710E022E350
:104C000030E040E050E00EC08091B3078130E1F227
:104C10008091B407843049F400ED17E022E330E0DE
:104C200048EC50E062E370E0B6CF823039F400ED3A
:104C300017E022E330E040E050E0ABCF813009F4F0
:104C400099CF8091B507813049F408EC10E022E358
:104C500030E040E050E060E070E013C0823039F4B2
:104C600008EC10E022E330E040E050E008C0833080
:104C700058F008EC10E022E330E048EC50E068EC3B
:104C800070E088EC90E089CF8091BF07813059F4C3
:104C900000E010E020E030E040E050E060E070E054
:104CA00080E090E07ACF0E9471111092B607809157
:104CB000E8019091E901892B31F48091A50190914F
:104CC000A601892B11F04D9A08C080914C0283FDFA
:104CD0005D9A80914C0281FD5D984091DA0350917C
:104CE000DB036091DC037091DD0380912A039091D6
:104CF0002B03A0912C03B0912D0384179507A607D1
:104D0000B70710F590914D0280914C0297FD19C0A4
:104D1000877F80934C024D9A8091DA039091DB0358
:104D2000A091DC03B091DD0380569947AE4FBF4F91
:104D300080932A0390932B03A0932C03B0932D030D
:104D400003C0886080934C020E94810880914C02CD
:104D500081FF0CC08091A70190912A02981730F42E
:104D600090910C01891710F480930C010E94B802F5
:104D7000C0904803D0904903E0904A03F0904B0361
:104D8000DC01CB018C199D09AE09BF098B3892401B
:104D9000A105B10550F0809146039091470301961B
:104DA00090934703809346030DC00E94B802DC0134
:104DB000CB018C199D09AE09BF098A389240A10523
:104DC000B10598F30E94A204AE014F5F5F4F7A01D4
:104DD0006CED71E07EA36DA3E0E4F3E08B0153E0A2
:104DE000C52ED12CAD8DBE8D2D913D91BE8FAD8F39
:104DF000D7018D919D917D01280F391F808191816F
:104E0000820F931FB6010E94AB2ED8016D937D9344
:104E10008D0135952795219331932D8D3E8D245D00
:104E2000314001F70E94B8026093DA037093DB030C
:104E30008093DC039093DD0320917A0330917B0310
:104E4000DB01A21BB30BB093E701A093E6017093C3
:104E50007B0360937A0380914D0280FF41C0609193
:104E600078037091790340917003509171039B0115
:104E7000241B350B37FF03C03195219531092932A9
:104E8000310574F081E080936A03461757071CF0E0
:104E900088E290E002C088ED9FEF860F971F1CC04C
:104EA00080916A03882391F08091360290913702B5
:104EB000A0913802B091390280933202909333026C
:104EC000A0933402B093350210926A0380916C0370
:104ED00090916D03840F951F9093790380937803CD
:104EE000209174033091750337FF03C031952195EC
:104EF0003109809172039091730397FF03C09195DC
:104F0000819591094901281739070CF44C01B5EF37
:104F10008B16B1E09B0624F094EF892E992493948C
:104F2000A0904C02AD8A1A2D10761DA79091F70122
:104F300020910B021BEF120350011124BFA6AEA655
:104F400015E0219F50011124B9AAA8AA809101025D
:104F50001D8910741AAB1D8910721CAF21E633E055
:104F600038A72FA34BE553E058A34F8F65E573E0B7
:104F70007CA36BA3ACE4B3E0B8AFAFABECE7F3E07A
:104F8000FE8FED8F20E833E03E872D871A8A198A3D
:104F9000612C712CE0E0F0E0E12CD12CC12CF12C43
:104FA000A12CB12C20E032E0A901481959095AAFCF
:104FB00049AF692F70E07EAF6DAFA82FB0E02196AA
:104FC000BFAFAEAF21971DA5112309F47BC022E02E
:104FD0006216710409F476C0A98DBA8D4D915C9169
:104FE000440F551FA989BA89A25BBE4F0D90BC9191
:104FF000A02D4A0F5B1F453FB1E05B0714F044EF63
:1050000051E04C301EEF510714F44CE05EEFA989DB
:10501000BA89AE51BE4F8D919C91481B590BA989FD
:10502000BA89A151BE4F96960D90BC91A02D4A0F02
:105030005B1F2DAD3EADDA010E94E62EDC01CB01F7
:1050400007E0B595A795979587950A95D1F7AEA4F2
:10505000BFA48A159B0544F05C0128A939A928172B
:10506000390724F4590102C0AEA4BFA4AD8DBE8D92
:105070008D919C91480F591F4131B7E25B0714F0A5
:1050800040E157E2403F18ED510714F440EF58ED6E
:10509000AD8DBE8D4D935C9321962EAD3FAD219786
:1050A000DA010E94E62EDC01CB011CE0B595A79544
:1050B000979587951A95D1F7C82EF92E1DA5103210
:1050C00009F479C0A98DBA8D0D911C91C8018D503C
:1050D0009E4FF301E151FE4F873E934060F46181A2
:1050E00070E0C801B6E0880F991FBA95E1F70E94F9
:1050F000AB2E9B0114C0C801012E000CAA0BBB0BE8
:10510000BC01CD01A6E0660F771F881F991FAA95E5
:10511000D1F7218130E040E050E00E94BF2EEDA1A8
:10512000FEA180819181AD85BE856D917C91AC01A0
:1051300097FF04C044275527481B590B413852405C
:10514000ACF4281B390B260F371F2138EEE33E073E
:1051500014F020E83EE32038F1EC3F0714F420E897
:1051600031ECAD85BE852D933C9304C0ED85FE8565
:1051700011821082AD85BE858D919C91880F892FFB
:10518000881F990BF301E151FE4F2385289FA00151
:10519000299F500D112466E0559547956A95E1F7D2
:1051A000BAA9BB2309F44AC0E2E06E16710409F4FF
:1051B00053C0FA0106C01AA9112309F442C00E2DEA
:1051C0001D2D9501A9ADBAAD0E94DE2E1B012C014B
:1051D0009801D4010E94DE2EDC01CB01820D931DCB
:1051E000A41DB51DAC01BD01A9E075956795579546
:1051F0004795AA95D1F749A75AA76BA77CA72C2D4D
:105200003F2DA9ADBAAD0E94DE2E1B012C019F01DE
:10521000D4010E94DE2EDC01CB01820D931DA41D62
:10522000B51D29E0B595A795979587952A95D1F74E
:10523000AC01E02ED12E09A51AA515C0FA01E02E69
:10524000D12E1CAD112361F022E06216710441F0F1
:105250004C2D5F2D850107C0FA01E02ED12E03C031
:10526000AF010E2D1D2DADA1BEA14D905D90BEA331
:10527000ADA3ABA9BCA92D91BCABABAB30E0D201C7
:105280000E94E62EDC01CB0136E0B595A7959795F7
:1052900087953A95D1F7081B190BAFA1B8A58D9149
:1052A0009C9111979201281B390BC9014D925D9277
:1052B000B8A7AFA3AF8DB8A12D913C91ABA1BCA174
:1052C0006D917C91DB01A20FB31FBD01680F791FA7
:1052D000ABA1BCA12D933D93BCA3ABA3AF8DB8A153
:1052E0008D939D93B8A3AF8FADA9BEA92D91BEABF1
:1052F000ADAB400F511F30E0DB010E94E62EDC0118
:10530000CB0165E0B595A795979587956A95D1F7F7
:10531000481B590BAFA9B8AD4D935D93B8AFAFAB78
:10532000BFEF6B1A7B0A29893A892E5F3F4F3A8B70
:10533000298B4D8D5E8D4E5F5F4F5E8F4D8F6D85DE
:105340007E856E5F7F4F7E876D87898D9A8D0296F1
:105350009A8F898F93E06916710409F034CE2091F9
:10536000500330915103809176039091770397FF1A
:1053700003C09195819591094CE95FEF481B590B4A
:10538000241735073CF0AC014C595F4F2417350703
:105390000CF4A901509351034093500320917803DA
:1053A0003091790380914C0390914D03B901681BB2
:1053B000790BA0914E03B0914F03FB01EA0FFB1F45
:1053C000E41BF50BF093D501E093D4016A1B7B0B32
:1053D000640F751F7093D7016093D601280F391F92
:1053E000C9018A0F9B1F840F951F9093D901809349
:1053F000D8012A1B3B0B241B350B3093DB01209378
:10540000DA01861797070CF4CB01821793070CF487
:10541000C9018E179F070CF4CF0160912B02709188
:105420002C020091400210914102E4EDF1E024E0F1
:10543000E22E40ED57E06A01C81AD90AA0EEBBEF90
:105440002D892270F22E813D37E0930734F02081C0
:1054500031812C0D3D1D3183208320813181261720
:1054600037073CF0213D47E0340724F020ED37E0DA
:1054700001C09B01318320830C3454E0150714F4E0
:10548000B183A083F11002C0B183A083EA94329665
:10549000E110D9CF0E94580580E090E0892B11F4EB
:1054A0000C9432160E9400000C9432160E942F08B1
:1054B00080914C028E7F80934C020C94791981E08C
:1054C0000E94AB07109286030C94EC1980914C0259
:1054D00085FD0BC010927D0310927C0310927F0318
:1054E00010927E03806280934C028091EC018823AD
:1054F00089F080914C028F7D80934C0286FD0FC015
:1055000010927D0310927C0310927F0310927E0311
:10551000806403C080914C028F7B80934C02809109
:10552000EA01811105C080914C02816080934C0298
:105530008091ED018823D1F080914D0280FF02C05F
:105540000C94831F816080934D028091360290916C
:105550003702A0913802B0913902809332029093C1
:105560003302A0933402B09335020DC08091310212
:105570008823D9F080914D0280FF02C00C94831FD4
:10558000816080934D02809178039091790390938C
:1055900071038093700310926F0310926E03109248
:1055A0006D0310926C030C94831F80914D028E7FCB
:1055B00080934D020C94831F80914C028F7D93CF7A
:1055C00082E08093AF0793CAE6ECF7E01382128281
:1055D00088EE93E0A0E0B0E084839583A683B78350
:1055E0008DE591E0918380838FEF9FEF958784878E
:1055F000E6E1F8E01682178210861186128613867D
:105600001486158616861786108A118A128A138ABE
:10561000148A158A80914201909143019093650804
:105620008093640885E595E0909363088093620811
:1056300080916008909161080A9790935F08809329
:105640005E080895E89409C097FB3EF49095809514
:10565000709561957F4F8F4F9F4F9923A9F0F92F38
:1056600096E9BB279395F695879577956795B795B6
:10567000F111F8CFFAF4BB0F11F460FF1BC06F5F9C
:105680007F4F8F4F9F4F16C0882311F096E911C0AE
:10569000772321F09EE8872F762F05C0662371F0CF
:1056A00096E8862F70E060E02AF09A95660F771FE3
:1056B000881FDAF7880F9695879597F908950E94C5
:1056C000722B0C94E32B0E94D52B38F00E94DC2B1C
:1056D00020F0952311F00C94CC2B0C94D22B112498
:1056E0000C94172C0E94F42B70F3959FC1F3950F27
:1056F00050E0551F629FF001729FBB27F00DB11D56
:10570000639FAA27F00DB11DAA1F649F6627B00DE5
:10571000A11D661F829F2227B00DA11D621F739FCE
:10572000B00DA11D621F839FA00D611D221F749FDC
:105730003327A00D611D231F849F600D211D822F23
:10574000762F6A2F11249F5750409AF0F1F088234A
:105750004AF0EE0FFF1FBB1F661F771F881F915077
:105760005040A9F79E3F510580F00C94CC2B0C942F
:10577000172C5F3FE4F3983ED4F3869577956795B1
:10578000B795F795E7959F5FC1F7FE2B880F911DA1
:105790009695879597F9089597F99F6780E870E047
:1057A00060E008959FEF80EC089500240A94161697
:1057B000170618060906089500240A9412161306FF
:1057C000140605060895092E0394000C11F488238D
:1057D00052F0BB0F40F4BF2B11F460FF04C06F5FA9
:1057E0007F4F8F4F9F4F089557FD9058440F551F7F
:1057F00059F05F3F71F04795880F97FB991F61F053
:105800009F3F79F087950895121613061406551FC9
:10581000F2CF4695F1DF08C0161617061806991F35
:10582000F1CF86957105610508940895E894BB272A
:1058300066277727CB0197F90895DC01CB01FC019E
:10584000F999FECF06C0F2BDE1BDF89A319600B4D9
:105850000D9241505040B8F70895DC01CB0103C0D0
:105860002D910E94382C41505040D0F70895262F9A
:10587000F999FECF1FBA92BD81BD20BD0FB6F89435
:10588000FA9AF99A0FBE01960895DB018F939F93C0
:105890000E94772CBF91AF91A29F800D911DA39F75
:1058A000900DB29F900D11240895A1E21A2EAA1B0B
:1058B000BB1BFD010DC0AA1FBB1FEE1FFF1FA217C0
:1058C000B307E407F50720F0A21BB30BE40BF50BBD
:1058D000661F771F881F991F1A9469F76095709546
:1058E000809590959B01AC01BD01CF0108950E9468
:1058F000822CA59F900DB49F900DA49F800D911DAB
:1059000011240895A29FB001B39FC001A39F700D01
:10591000811D1124911DB29F700D811D1124911DB7
:1059200008955058BB27AA270E94A92C0C94E32B5A
:105930000E94D52B38F00E94DC2B20F039F49F3FD9
:1059400019F426F40C94D22B0EF4E095E7FB0C949A
:10595000CC2BE92F0E94F42B58F3BA176207730778
:105960008407950720F079F4A6F50C94162C0EF414
:10597000E0950B2EBA2FA02D0B01B90190010C015F
:10598000CA01A0011124FF27591B99F0593F50F477
:10599000503E68F11A16F040A22F232F342F4427CF
:1059A000585FF3CF469537952795A795F0405395C7
:1059B000C9F77EF41F16BA0B620B730B840BBAF097
:1059C0009150A1F0FF0FBB1F661F771F881FC2F702
:1059D0000EC0BA0F621F731F841F48F48795779516
:1059E0006795B795F7959E3F08F0B0CF9395880FD0
:1059F00008F09927EE0F9795879508950E94AD2D91
:105A0000E3950C94D62D0E94172D0C94E32B0E9445
:105A1000DC2B58F00E94D52B40F029F45F3F29F091
:105A20000C94CC2B51110C94172C0C94D22B0E945B
:105A3000F42B68F39923B1F3552391F3951B550B80
:105A4000BB27AA2762177307840738F09F5F5F4F51
:105A5000220F331F441FAA1FA9F335D00E2E3AF090
:105A6000E0E832D091505040E695001CCAF72BD0A8
:105A7000FE2F29D0660F771F881FBB1F26173707F9
:105A80004807AB07B0E809F0BB0B802DBF01FF272B
:105A900093585F4F3AF09E3F510578F00C94CC2B11
:105AA0000C94172C5F3FE4F3983ED4F386957795DA
:105AB0006795B795F7959F5FC9F7880F911D9695E4
:105AC000879597F90895E1E0660F771F881FBB1F40
:105AD000621773078407BA0720F0621B730B840BED
