:100000000C942D010C9455010C9455010C94550140
:100010000C9455010C9455010C9455010C94550108
:100020000C9455010C9455010C94B2100C9432119F
:100030000C9455010C9455010C9455010C945501E8
:100040000C9455010C9455010C9455010C945501D8
:100050000C9455010C9455010C9455010C945501C8
:100060000C9455010C9415030C943C030C9455010D
:100070000C9455010C9455010C9455010C945501A8
:100080000C9455010C9455010C9455010C94CB0221
:100090000C9455010C9455010C9455010C94550188
:1000A0000C9455010C9455010C94550105A84CCDA8
:1000B000B2D44EB93836A9020C50B9918688083CA2
:1000C000A6AAAA2ABE000000803F08000000BE9237
:1000D0002449123EABAAAA2ABECDCCCC4C3E00008D
:1000E0000080BEABAAAAAA3E00000000BF0000002C
:1000F000803F0000000000084178D3BB4387D11344
:100100003D190E3CC3BD4282AD2B3E68EC8276BEEB
:10011000D98FE1A93E4C80EFFFBE01C4FF7F3F00B5
:1001200000000000000102030D41524D3B414E47CB
:100130004C453B484F52495A4F4E3B4241524F3B30
:100140004245455045523B00524F4C4C3B50495460
:1001500043483B5941573B414C543B506F733B50D4
:100160006F73523B4E6176523B4C4556454C3B4D6E
:1001700041473B56454C3B00000000000706050484
:100180000100080A0B0C0D090000000025002800E2
:100190002B002E00310000000000240027002A0060
:1001A0002D003000040404040403040502020202CA
:1001B0000403020202020606060606060404020200
:1001C00002040404080201104080401020408040D6
:1001D000800802040180402010020110801020409D
:1001E0004020080B00020202010009040000010285
:1001F000020000052400100105240101010424026D
:1002000006052406000107058103100040090401CA
:1002100000020A00000007050202400000070583F3
:10022000024000000403090412010002EF02014031
:100230004123368000010102030141726475696E39
:100240006F204C4C430041726475696E6F204C65A1
:100250006F6E6172646F0000942A11241FBECFEF8D
:10026000DAE0DEBFCDBF11E0A0E0B1E0E0E4FDE503
:1002700002C005900D92AA36B107D9F728E0AAE688
:10028000B1E001C01D92AE36B207E1F711E0CDE258
:10029000D1E004C02197FE010E94932ECC32D107F9
:1002A000C9F70E949D130C949E2E0C94000020917F
:1002B000840430E0D901AB57BA4F9C919F5F97FD02
:1002C00090E0A901490F511D490F511DFA01EB574B
:1002D000FB4F8083F901EE57FB4F208182278083FB
:1002E0009C930895CF93DF931F92CDB7DEB7998388
:1002F0000E9457019981892F0F90DF91CF910C9423
:1003000057011F93CF93DF9300D0CDB7DEB7182FDF
:10031000862F79839A830E9457017981872F0E94C3
:100320005701812F0E9457019A81892F0F900F90BA
:10033000DF91CF911F910C945701CF93DF93EC0184
:10034000FE018491882331F0FE0184910E945701BF
:100350002196F6CFDF91CF9108951F93CF93DF932E
:10036000C82F162F84E20E9457018DE40E94570186
:10037000C11102C08EE301C081E20E945701C09109
:100380008404D0E0FE01EE57FB4F1082812F0E94C3
:100390005701CA58DB4F8881DF91CF911F910C9490
:1003A0005701682F80E00C94AD018091840490E0A7
:1003B000FC01E858FB4F208131E0320F3083820F7F
:1003C000911D820F911DFC01EA50FC4F8081089520
:1003D000CF93DF930E94D501C82FD0E00E94D501B2
:1003E00090E0982F88278C0F9D1FDF91CF91089563
:1003F000CF93DF9390E0FC01ED53FE4F2491FC017D
:10040000EC55FE4F8491882361F190E0880F991F8D
:10041000FC01EA56FE4FC591D491FC01E857FE4F0E
:10042000A591B491611109C09FB7F8948881209576
:1004300082238883EC912E230BC0623061F49FB736
:10044000F8943881822F809583238883EC912E2B1A
:100450002C939FBF06C08FB7F894E8812E2B28837A
:100460008FBFDF91CF910895823108F08251E82F3C
:10047000F0E0E458FE4FE49180917B00E3FB2227FB
:1004800020F930E095E0220F331F9A95E1F78F7D38
:10049000282B20937B00E770E064E0937C00809140
:1004A0007A00806480937A0080917A0086FDFCCF88
:1004B000809178002091790090E0922B08953FB7C9
:1004C000F8948091920790919307A0919407B0912E
:1004D000950720919400C09B05C02F3F19F001960D
:1004E000A11DB11D3FBFBA2FA92F982F8827820FBA
:1004F000911DA11DB11DBC01CD0142E0660F771F0A
:10050000881F991F4A95D1F708958F929F92AF92B5
:10051000BF92CF92DF92EF92FF926B017C010E941B
:100520005F024B015C01C114D104E104F104F1F05C
:100530000E945F02DC01CB0188199909AA09BB0955
:10054000883E9340A105B10570F321E0C21AD1089D
:10055000E108F10888EE880E83E0981EA11CB11C0A
:10056000C114D104E104F10419F7DDCFFF90EF903D
:10057000DF90CF90BF90AF909F908F9008952FB74E
:10058000F89460918E0770918F07809190079091F9
:1005900091072FBF08951F920F920FB60F9211244B
:1005A0002F933F938F939F93AF93BF9380918E0729
:1005B00090918F07A0919007B091910730918D078E
:1005C00023E0230F2D3720F40196A11DB11D05C096
:1005D00026E8230F0296A11DB11D20938D0780935D
:1005E0008E0790938F07A0939007B0939107809107
:1005F000920790919307A0919407B0919507019667
:10060000A11DB11D8093920790939307A093940727
:10061000B0939507BF91AF919F918F913F912F918B
:100620000F900FBE0F901F9018951F920F920FB64C
:100630000F9211242F938F939F93EF93FF93909199
:10064000CE0080918C078F5F20918A07821751F02E
:10065000E0918C07F0E0EE0FFF1FE757FA4F918310
:1006600080938C07FF91EF919F918F912F910F9025
:100670000FBE0F901F9018951F920F920FB60F92FA
:1006800011248F939F93EF93FF938091880590910E
:100690008605981771F08F5F87FD80E0E82FF0E006
:1006A000EE0FFF1FEB57FB4F91819093CE0080938D
:1006B000880590918605891305C08091C9008F7DBA
:1006C0008093C900FF91EF919F918F910F900FBE82
:1006D0000F901F9018958FEF90E02091BC0027FDA0
:1006E00018C00197D1F71092BC000E945F0260937E
:1006F000CC037093CD038093CE039093CF0380916E
:100700008F019091900101969093900180938F01B9
:10071000089508950F931F93CF93DF931F92CDB742
:10072000DEB70CEB10E094EAF801908389830E9415
:100730006B0389818093BB0084E8F80180830F906C
:10074000DF91CF911F910F910C946B03CF92DF92A9
:10075000EF92FF921F93CF93DF9300D0CDB7DEB718
:10076000880F4A8369830E948A038BEBE82EF12C61
:100770006981F70160839CEBC92ED12C14E8F60146
:1007800010830E946B034A81F7014083F6011083B6
:100790000E946B0384E9F60180830F900F90DF9134
:1007A000CF911F91FF90EF90DF90CF900895CF935E
:1007B000DF934EE264EF87E70E94A6038EEE0E946D
:1007C0008A0386EF8093BB00CCEBD0E084E888837B
:1007D0000E946B0384E98883DF91CF910895AF92E3
:1007E000BF92CF92DF92EF92FF920F931F93CF931E
:1007F000DF9300D01F92CDB7DEB7182F7901880F95
:100800004A835B8369830E948A0369816093BB008A
:1008100084E88093BC000E946B03812F880F816065
:100820000E948A03570181E0A81AB1084A81042F67
:100830005B81152F84E9C82E8FEFA816B806D1F07A
:10084000DD24D394A114B10419F4D12C84E801C09F
:1008500084EC8093BC000E946B038091BB00D1109C
:1008600002C0C092BC00F80181938F01F1E0AF1A81
:10087000B108E2CFC7010F900F900F90DF91CF9199
:100880001F910F91FF90EF90DF90CF90BF90AF90AE
:100890000895FF920F931F93CF93DF9326E030E0EC
:1008A00043E851E063E488E60E94EF03809185010C
:1008B00090E0982F882720918601822B9595879527
:1008C000959587959093BB018093BA0180918301A0
:1008D00090E0982F882720918401822B9195819513
:1008E000910995958795959587959093BD018093EE
:1008F000BC018091870190E0982F88272091880182
:10090000822B9195819591099595879595958795D8
:100910009093BF018093BE018091910190919201CB
:10092000009709F443C0F090A307A6EDB3E0ECED07
:10093000F3E0CAEBD1E0811522E0920721F41082A6
:1009400011821282138248815981052E000C660B98
:10095000770B0081118122813381400F511F621F6B
:10096000731F41935193619371931992199281303E
:10097000910521F011961C921E920CC029E07595EC
:100980006795579547952A95D1F711965C934E93A5
:1009900034E0F32E129623E0E83EF20761F6F0927F
:1009A000A30701979093920180939101C6EDD3E044
:1009B000EAEBF1E0A0EDB3E08991999120813181DA
:1009C000281B390B4D915C911197CA0180529340BD
:1009D0002817390734F0805C994F281739070CF431
:1009E000C901819391938D939D9381E0E03CF80739
:1009F00019F7DF91CF911F910F91FF900895E0ECCF
:100A0000F1E08081918124E0880F991F2A95E1F718
:100A10009E5390938900809388008281938134E073
:100A2000880F991F3A95E1F79E5390938B0080931E
:100A30008A0084819581885E9340880F991F2FEEEC
:100A400037E0A901481B590BCA01AFEBB0E09C93FA
:100A50008481885E880F9FEE981B9093CF008681DB
:100A60009781880F991F805C97409C938681880F9F
:100A7000805C8093D20008954F925F926F927F9234
:100A80008F929F92AF92BF92CF92DF92EF92FF929E
:100A9000CF93DF9300D000D0CDB7DEB76B017C01E0
:100AA00029013A010E94042C4B015C01C301B201EF
:100AB0000E94042C9B01AC01C501B4010E945A2B79
:100AC0004B015C01B701A601F7FE07C0442755277B
:100AD000BA014C195D096E097F09D301C20177FE85
:100AE00007C088279927DC0184199509A609B70949
:100AF000481759076A077B078CF520E030E44FE080
:100B000054E4C501B4010E941F2D69837A838B834D
:100B10009C8329E23CE54FE85EE3C501B4010E94F5
:100B20001F2DA50194010E941F2D20E030E040E818
:100B30005FE30E94E92A9B01AC0169817A818B8184
:100B40009C810E945A2B0E94CC2B9B0177FE31C0C6
:100B5000F7FC2DC09B01285F384F2BC020E030E40C
:100B60004FE054E4C501B4010E941F2D2B013C014C
:100B7000A5019401C501B4010E941F2D29E23CE5A5
:100B80004FE85EE30E94E92A9B01AC01C301B20178
:100B90000E945A2B9B01AC0160E070E081E694E476
:100BA0000E94E82A0E94CC2B9B01F7FE02C028502D
:100BB0003740C9010F900F900F900F90DF91CF91A8
:100BC000FF90EF90DF90CF90BF90AF909F908F906D
:100BD0007F906F905F904F900895CF92DF92EF9249
:100BE000FF920F931F93CF93DF93082F142FC0E032
:100BF000C62ED12CE12CF12CC11791F0D0E0D017EA
:100C000039F04D9AC701B6010E948502DF5FF7CF28
:100C10006CE370E080E090E00E948502CF5FECCF53
:100C2000DF91CF911F910F91FF90EF90DF90CF90C8
:100C300008952F923F924F925F926F927F928F9280
:100C40009F92AF92BF92CF92DF92EF92FF920F935B
:100C50001F93CF93DF93CDB7DEB766970FB6F894A7
:100C6000DEBF0FBECDBF109275014FE350E06EE0C6
:100C700070E08BED91E00E94C02AEBEDF1E085E59C
:100C80009EE39E0F9E1719F02191820FFBCF90914A
:100C90001902891751F043E064E686E00E94ED05F1
:100CA00083E08093A3070E947807E090FB01F12C7A
:100CB0000091FA012EEAC22E21E0D22E612C712C75
:100CC00010E034EC832E39E0932EA12CB12C669CDD
:100CD0009001679C300D300D112429513109E29E9D
:100CE000C001E39E900DF29E900D11248C53964FFF
:100CF000869DD001879DB00D969DB00D1124980161
:100D00000E94792EA50194010E94432EF6012193A1
:100D100031936F01FFEF6F1A7F0A26E062167104AC
:100D2000B1F63091FF013D8B04E6031B0B836AE0B3
:100D3000369FA00111245D834C838091000290E0D6
:100D400024E630E0281B390BA901330F660B770B23
:100D50004E835F836887798700911702109118028C
:100D600020ED37E0B901601B710B7B876A877D89B5
:100D7000272E312C319421943108E8E9F1E0FA83EF
:100D8000E983C12CD12C76019101032C000C440B7A
:100D9000550B288B398B4A8B5B8B8E8B9C8B8AE017
:100DA000482E512C612C712C98EE892E93E0992EAF
:100DB000A12CB12C121413042CF02114310421F4B1
:100DC00041E003C04B8101C04D89229CD001239C8E
:100DD000B00DB00D1124688979898A899B896C0DC1
:100DE0007D1D8E1D9F1D6C877D878E879F872E8919
:100DF0003C890E94792E449F90011124032E000CFF
:100E0000440B550B0E94432E6E817F818885998506
:100E1000620F731F841F951F2C853D854E855F854E
:100E20000E94DD2DA30192010E94432EAC81BD8161
:100E3000A20FB31F2A853B850E94622EA501940153
:100E40000E94432E200F311FE981FA8121933193B3
:100E5000FA83E983FAE02F0E311C2AE0C20ED11C7E
:100E6000E11CF11C3EE6C316D104E104F10409F0D3
:100E7000A1CF66960FB6F894DEBF0FBECDBFDF914F
:100E8000CF911F910F91FF90EF90DF90CF90BF9087
:100E9000AF909F908F907F906F905F904F903F901A
:100EA0002F900895CF93C82F10927501EBEDF1E0CC
:100EB00095E58EE38E0F8E1719F02191920FFBCFDF
:100EC000909319024FE350E06EE070E08BED91E0FB
:100ED0000E94D02A0E941906C13029F441E064E141
:100EE0008FE00E94ED0581E08093A307CF910895E4
:100EF000EBEDF1E021E221839EE1938787E1858B91
:100F000022839487868B84E483832DE22587178A46
:100F100094E6948389E1868788E1808F8BE08583DE
:100F20001786118E84E1868338E0308B228F2EE085
:100F30002783818B80E5838F8AE580872AE0228B57
:100F4000948F98E291871286148A168E878F10A24A
:100F500011A212A213A282E384A385A313A612A650
:100F600015A614A613AA12AA87E090E097A786A751
:100F700080E290E091AB80AB17A216A211A610A65A
:100F800014AA8AE194E096AB85AB80E487AB8DEB45
:100F900080AF88EB81AF83EB82AF80E183AF88EED7
:100FA00093E095AF84AF80E00C9452071092370223
:100FB00010921D021092360288EE93E090932D025B
:100FC00080932C028091380281FF03C08D7F809333
:100FD0003802089520919101309192018091380258
:100FE000232BC1F483FF16C081FD1EC08260809355
:100FF000380280919601909197019093950180938A
:1010000094018091930190911602981768F480934F
:101010000C010AC081FD08C041E06FEF82E00E9430
:10102000ED0581E08093A40780916A0181110FC0D2
:1010300081E080936A0180E092E090939201809336
:1010400091018AE090E09093740180937301089578
:101050002F923F924F925F926F927F928F929F92C8
:10106000AF92BF92CF92DF92EF92FF920F931F93B6
:10107000CF93DF9300D000D000D0CDB7DEB7312CB6
:1010800080EF91E00AE0202E280E84E291E025E036
:10109000280F298383E491E0E8E0E80FEA83A09039
:1010A0009601B090970130928404E12CFF24F394D0
:1010B000C12C12E0D12E90908404911003C00E94A4
:1010C000D00F10C0292D30E0F901E557F84F80818D
:1010D000F901E757F84F208190E0821B9109B70191
:1010E0000E940D2E882309F456C5292D30E0F90100
:1010F000EB57FA4F8081F901E957FA4F9081891B2C
:101100008F778F3408F04DC5911009C09C823B83C6
:101110000E94C30F0E947C0F2C813B8115C0F901F6
:10112000E757F84F4081C901840F911D840F911D2D
:10113000DC01A757BA4F8C91D901A557B84F9C91A4
:10114000941711F04F5F4083A901440F551FFA0116
:10115000E258FB4F608171816115710549F421E00E
:1011600030E0843211F020E030E031832083A3CFDF
:101170006130710529F48D3441F482E090E00AC0B9
:101180006230710559F48C3319F080E090E002C0B0
:1011900083E090E0FA01E258FB4F28C0633071050C
:1011A000B1F4813408F0F4C4D901A458BB4F8C9336
:1011B000D901A658BB4F1C92D901A858BB4F1C920D
:1011C000D901AE57BB4F8C9384E090E00FC06430E0
:1011D000710579F4D901AA58BB4F8C93D901AE5748
:1011E000BB4F9C9189278C9385E090E0918380830D
:1011F00062CF6530710509F05ECFD901A658BB4FAB
:101200009C91F901E458FB4F4081F901EE57FB4FE7
:10121000941778F440814827408341E0490F4C936C
:10122000290F311D290F311DF901EA50FC4F808330
:1012300042CF90819813A5C4F901EA58FB4F8081F1
:101240008A3909F469C208F09FC0803709F4D1C314
:1012500008F071C0883609F484C340F5853609F476
:101260000AC3C0F4843609F05BC487E00E94D10150
:101270008CED0E94570183E00E94570180E00E949C
:101280005701E8E7F1E065917591859194910E948D
:1012900081014AC4863609F430C3873609F040C458
:1012A00080E10E94D101A8E09A2E53C38D3609F443
:1012B00086C3E8F4893609F46FC38C3609F030C46C
:1012C00088E00E94D1018091CE019091CF010E94CF
:1012D00072018091D0019091D1010E947201C501EB
:1012E0000E9472018091940190919501D1C38E3634
:1012F00009F473C38F3609F013C487E00E94D1014B
:101300008091FA010E9457018091FB010E945701D0
:101310008091FC010E9457018091FD010E945701BC
:101320008091FE010E9457018091FF010E945701A8
:1013300080910002DFC2853709F477C388F48237D1
:1013400009F4A1C308F477C3833709F4A4C384372D
:1013500009F0E6C38EE10E94D10189E291E07EC3EB
:10136000873909F4C9C148F4873709F47AC3863943
:1013700009F0D6C3812C912C4AC1883909F4BFC128
:10138000893909F4BFC1CCC38A3C09F447C208F0CB
:1013900077C08F3909F4F9C160F48C3909F4D2C1EE
:1013A00008F4C5C18D3909F4D7C18E3909F4DEC1FD
:1013B000B7C38E3B09F4CDC008F057C0803A09F49A
:1013C000EFC18D3B09F0ACC38CE00E94D10141E03C
:1013D00064E18FE00E94ED0520E030E04AE753E44D
:1013E000609131017091320180913301909134010B
:1013F0000E941F2D0E94D32B6093EA036091DF01AE
:1014000070E080E090E00E94042C20E030E04AE7A9
:1014100053E40E941F2D20E030E048E453E40E9492
:101420005A2B0E94D32B6093EB038091E9018093A8
:10143000EC036091F30170E080E090E00E94042CE6
:1014400020E030E04AE753E40E941F2D20E030E026
:1014500048EC52E40E945A2B0E94D32B6093ED0378
:10146000EAEE8E2EE3E09E2E69C0873C09F4A9C106
:10147000883C09F055C3F6E28F2EF2E09F2E4EC055
:10148000803D09F418C370F58D3C09F41BC318F5B1
:101490008B3C09F4D9C18C3C09F042C30E94D501B0
:1014A0008093FA010E94D5018093FB010E94D5012F
:1014B0008093FC010E94D5018093FD010E94D5011B
:1014C0008093FE010E94D5018093FF010E94D50107
:1014D000809300020DC38E3C09F4FDC28F3C09F4D9
:1014E00007C31EC38D3D09F413C350F4833D09F4B3
:1014F000BBC18C3D09F014C381E080931C0214C36E
:101500008A3F09F4F2C28E3F09F00AC388E00E94C4
:10151000D1013BE6832E31E0932EEEC20E94E8011A
:10152000F401819391934F01F6E38F16F2E09F0649
:10153000A9F710921B0210921A02DAC2F4018191EB
:101540004F010E945701F6EF8F16F3E09F06B1F7A7
:10155000EBC27AEE872E73E0972E0E94D501F4013C
:1015600081934F01F6EF8F16F3E09F06B1F741E04C
:1015700064E18FE00E94ED056091EA0370E080E095
:1015800090E00E94042C20E030E04AE753E40E94FF
:101590005A2B609331017093320180933301909301
:1015A00034016091EB0370E080E090E00E94042C35
:1015B00020E030E04AE753E40E945A2B20E030E07C
:1015C00048E453E40E941F2D0E94D32B6093DF0157
:1015D0008091EC038093E9016091ED0370E080E07D
:1015E00090E00E94042C20E030E04AE753E40E949F
:1015F0005A2B20E030E048EC52E40E941F2D0E945C
:10160000D32B6093F30180E00E945207BAC20E947C
:10161000D50190E086509F4F880F991F880F991F22
:10162000F401EE0FFF1FE35FFE4F918380832FEFE6
:10163000821A920A84E08816910449F70E94D50123
:10164000982F929596959695937019F428EE33E01D
:1016500007C0913019F42CED35E002C020ED37E0E1
:101660003093160120931501282F207330E044E0B9
:10167000359527954A95E1F72115310519F428EE9E
:1016800033E008C02130310519F42CED35E002C0FB
:1016900020ED37E03093180120931701282F2C708C
:1016A00030E035952795359527952115310519F4A5
:1016B00028EE33E008C02130310519F42CED35E077
:1016C00002C020ED37E030931A0120931901837096
:1016D00019F488EE93E007C0813019F48CED95E0A1
:1016E00002C080ED97E090931C0180931B01109243
:1016F0001B0210921A0245C20E94EA0715C20E94FC
:10170000D60712C280910302909104028837910596
:101710000CF00AC2019634C0809103029091040239
:101720008938EFEF9E070CF4FFC1019729C0809123
:101730000102909102028938FFEF9F070CF4F4C177
:10174000019737C08091010290910202883791057C
:101750000CF0EAC101962DC0809103029091040221
:10176000883791050CF0E0C10A960AC08091030207
:101770009091040289382FEF92070CF4D5C10A9793
:10178000909304028093030218C08091010290910B
:1017900002028938EFEF9E070CF4C6C10A9709C010
:1017A0008091010290910202883791050CF0BCC132
:1017B0000A96909302028093010281E00E945207F0
:1017C000B3C18EE00E94D10180E00E94570180E009
:1017D00090E00E94720180912202909123020E9467
:1017E00072018091CE019091CF010E94720180918F
:1017F000D0019091D1010E94720180911E029091BE
:101800001F020E947201809193010E9457018091F2
:1018100003020E945701809101026CC080EF882E64
:1018200081E0982E0E94D501F401749780830E9474
:10183000D501F4013A9780830E94D501F401819388
:101840004F012E12EFCF54C105E0802E02E0902E02
:101850000E94E801F401819391934F01FFE08F16FC
:10186000F2E09F06A9F744C10E94E8019093E903C2
:101870008093E8033DC18BE00E94D1018091D201A9
:101880009091D3010E94720180918F0190919001FB
:101890000E94720183E090E00E9472012091380260
:1018A00025FB442440F8512CB201660F771F26FB1C
:1018B000882780F98D831E828D819E81880F991FD4
:1018C000880F991F682B792B21FB002700F910E066
:1018D000602B712B8091DA01E0E18E9FC001112411
:1018E000682B792B072E000C880B990B0E94810125
:1018F000809175010E94570117C182E10E94D101B8
:101900008091890190918A010E94720180918B01DE
:1019100090918C010E94720180918D0190918E01B5
:101920000E9472018091C8019091C9010E947201C8
:101930008091CA019091CB010E9472018091CC01EB
:101940009091CD010E94720180E090E00E947201AE
:101950004BC080E090E00E9472019A949110F9CF00
:10196000E3C080E10E94D101F0EC8F2EF1E09F2EC8
:1019700020E0243020F4F4018081918102C080E0D5
:1019800090E02C830E9472012C812F5FF2E08F0E79
:10199000911C283071F7C8C080E10E94D101E6E2B5
:1019A0008E2EE2E09E2EF401819191914F010E94D2
:1019B0007201F6E38F16F2E09F06A9F7B5C086E044
:1019C0000E94D10160912202709123028091240231
:1019D000909125020E94810159C085E00E94D101A9
:1019E000809193010E94570180E090E00E94720173
:1019F0004DC08EE10E94D10170EF672E71E0772E0D
:101A00004301F301749780810E945701F3013A97D3
:101A100080810E9457012FEF621A720AF4018081BF
:101A20000E9457012610ECCF7FC08FE20E94D101A7
:101A300088E491E013C08AE00E94D10165E0862E1F
:101A400062E0962EF401819191914F010E94720102
:101A5000FFE08F16F2E09F06A9F766C00E949D0185
:101A600063C085E00E94D10154E2852E51E0952E9D
:101A7000F40184910E945701FFEF8F1A9F0A298178
:101A80002811F6CF51C082E00E94D10180E090E0A1
:101A90000E94720149C088E00E94D10143E4842E73
:101AA00041E0942EF40181914F010E945701FA8187
:101AB000F811F8CF39C08091380281FD19C00E9419
:101AC000780716C08091380281FD12C0D092D501EE
:101AD000C092D4010DC08091380281FD09C080916F
:101AE0003A02816080933A0203C080E00E9452076C
:101AF00080E00E94D10118C0F401819191914F01C1
:101B00000E947201F3E78F16F1E09F06A9F70CC05F
:101B100081E0809337021092B7071092B60704C095
:101B200060E081E00E94AD0190908404E92DF0E036
:101B3000EE57FB4F80810E9457019920E1F021E090
:101B400092121FC08091C90080628093C90019C0A1
:101B5000809187058F5F8093870587FD10928705A9
:101B60008091870590E0880F991F61E070E08B57A6
:101B70009B4F0E94DF0E90918505809187059813F9
:101B8000E7CFE0918404F0E0EE0FFF1FE258FB4F37
:101B90001182108290CA81E0381619F033243394F0
:101BA00082CA26960FB6F894DEBF0FBECDBFDF9176
:101BB000CF911F910F91FF90EF90DF90CF90BF904A
:101BC000AF909F908F907F906F905F904F903F90DD
:101BD0002F900895CF92DF92EF92FF920F931F9371
:101BE000CF93DF936C017A018B01C0E0D0E0CE157A
:101BF000DF0589F0D8016D918D01D601ED91FC9141
:101C00000190F081E02DC6010995892B11F47E0128
:101C100002C02196ECCFC701DF91CF911F910F91A8
:101C2000FF90EF90DF90CF9008958091C0078111D1
:101C30000DC082E08093BC0784E08093BD071092C2
:101C4000BF071092BE0781E08093C0078CEB97E03E
:101C50000895CF93DF931F92CDB7DEB76983DC0180
:101C6000ED91FC910280F381E02D41E050E0BE0156
:101C70006F5F7F4F09950F90DF91CF9108950E947C
:101C8000992ECF92DF92EF92FF920F931F93CF93F3
:101C9000DF931F92CDB7DEB7182F062FE42E862FC5
:101CA000880F8E5F99830E94621383E00E94621303
:101CB000F12EC12E9981D92E8C2D8F19801798F471
:101CC000F601E7FE02C0849101C080810E94621388
:101CD000182F80E00E9462138123FFEFCF1ADF0AE2
:101CE0008111EACF01C081E00F90DF91CF911F9168
:101CF0000F91FF90EF90DF90CF900895DF92EF92D9
:101D0000FF920F931F93CF93DF93D82E8A017B010D
:101D1000E40EF51EEB01CE15DF0571F0D7FE03C012
:101D2000FE01849101C088810E9462132196811175
:101D3000F2CF8FEF9FEF01C0C801DF91CF911F91CC
:101D40000F91FF90EF90DF9008950F931F93CF9323
:101D5000DF931F92CDB7DEB782E0898342E450E083
:101D600062EE71E080E80E947E0E0E94150EDC019A
:101D700012960D911C9113970115110569F0D80168
:101D8000ED91FC910280F381E02DBE016F5F7F4FEA
:101D9000C801099597FF07C089810F90DF91CF9106
:101DA0001F910F910895F80100851185E5CF80916D
:101DB0001A08882319F05B9810921A0808959F92C8
:101DC000AF92BF92CF92DF92EF92FF920F931F9349
:101DD000CF93DF936C018B018091B307811103C016
:101DE0008FEF9FEF66C08091B20780FF05C08091A2
:101DF000E00082608093E000C02FD12FF12C8AEFA9
:101E0000E82E93E0B92E20E4922E3AE3A32E2097F9
:101E100009F448C08FB7F894B092E9009091E800B7
:101E200095FF05C09091F200292D291B01C020E0EB
:101E30008FBF21110AC0EA94EE2091F261E070E0B8
:101E400080E090E00E948502E2CF822F90E0C817E8
:101E5000D9070CF42C2F8FB7F894B092E900909129
:101E6000E80095FF1DC0422F50E0C41BD50BF601C2
:101E7000215020F091919093F100FACFC40ED51E1D
:101E8000FF2019F0A092E8000AC09091E80095FDAB
:101E900007C0A092E800FF24F394209709F0F12CEA
:101EA0008FBFB5CFF110B6CF5D9884E68093180848
:101EB000C801DF91CF911F910F91FF90EF90DF90BC
:101EC000CF90BF90AF909F900895CF93DF93EC0198
:101ED000CB0120914001222331F0BA010E94DF0E94
:101EE0001816190634F081E090E09B838A8380E025
:101EF00090E0DF91CF9108959091B307911103C0C5
:101F00008FEF9FEF08954FB7F89492E09093E90018
:101F10002091F20030E01216130614F421E030E0B4
:101F20002115310551F0289884E68093B1078091FE
:101F3000F1009091F200992331F04FBF213031052B
:101F4000F9F690E008959BE69093E800F6CFFC0147
:101F50008485958597FD05C02FEF3FEF3587248752
:101F600008950C947C0FCF93DF93EC018C859D85B5
:101F700097FF04C00E947C0F9D878C878C859D8570
:101F8000DF91CF91089583E08093E9008091F20082
:101F9000882319F08AE38093E80008950C94C30F16
:101FA0009FB7F89482E08093E9008091F2009FBF90
:101FB0000895FC018485958597FD05C00E94D00F8A
:101FC00090E0019608950E94D00F90E00895CF927E
:101FD000DF92EF92FF920F931F93CF93DF93E091E5
:101FE000AD07E11117C0E1E0E093AD079093F10771
:101FF0008093F0077093F3076093F2075093F5070F
:102000004093F4071093F7070093F6073093F9070E
:102010002093F807E091E207E33030F5F0E0EE0FAF
:10202000FF1FE051F84FC081D181209709F44CC0C7
:10203000E090F807F090F90780911A08811165C0C7
:102040000E94BF020091D1071091D2072091D307BF
:102050003091D4070E0D1F1D211D311D6017710712
:102060008207930718F530C0C090D107D090D207EF
:10207000E090D307F090D4070E94BF022091F607AA
:102080003091F707DC01CB01821B930BA109B10949
:10209000C816D906EA06FB06B8F41092E2071092B9
:1020A000AD0710929C071092A30725C081E0809392
:1020B0001A085B9A0E94BF026093D1077093D207FF
:1020C0008093D3079093D4079091C9078091E2073A
:1020D000913051F0E82FF0E0EE0FFF1FE051F84F84
:1020E00020813181232BA9F5833018F48F5F8093F1
:1020F000E2071092C907DF91CF911F910F91FF90D6
:10210000EF90DF90CF900C94D70E0E94BF02009109
:10211000D1071091D2072091D3073091D4070C0F2B
:102120001D1F211D311D601771078207930760F283
:1021300010921A085B980E94BF026093D1077093B7
:10214000D2078093D3079093D40781E08093C90787
:10215000BBCFDF91CF911F910F91FF90EF90DF9058
:10216000CF9008951F920F920FB60F9211242F93C4
:102170003F934F935F936F937F938F939F93AF930F
:10218000BF93CF93EF93FF93C091E1008091E10063
:10219000837F8093E100C3FF0FC01092E90081E0CC
:1021A0008093EB001092EC0082E38093ED0010929C
:1021B000B30788E08093F000C2FF18C00E94C30FED
:1021C00080911808882339F08091180881508093F5
:1021D0001808882389F18091B107882339F080910C
:1021E000B10781508093B107882341F1C4FF10C02B
:1021F0008091E2008E7E81608093E2008091E10018
:102200008F7E8093E1008091B2078E7E806111C045
:10221000C0FF16C08091E2008E7E80618093E20054
:102220008091E1008E7E8093E1008091B2078E7EE6
:1022300081608093B20704C05D9ACDCF289AD6CF33
:10224000FF91EF91CF91BF91AF919F918F917F912E
:102250006F915F914F913F912F910F900FBE0F9013
:102260001F9018951F920F920FB60F921124CF92C4
:10227000DF92EF92FF920F931F932F933F934F9311
:102280005F936F937F938F939F93AF93BF93EF93DE
:10229000FF93CF93DF93CDB7DEB76C97DEBFCDBF93
:1022A0001092E9008091E80083FFEDC168E0CE0163
:1022B00045960E94901382EF8093E8008D8987FFF6
:1022C00005C09091E80090FFFCCF03C09EEF909373
:1022D000E800982F907609F0C6C09E892F89188D46
:1022E00091110CC0803829F480919B078093F100F4
:1022F00002C01092F1001092F10048C1422F50E04C
:10230000512B913051F4811141C14130510509F0F7
:102310003DC180919B078D7F0BC0933061F481118B
:1023200035C14130510509F031C180919B07826070
:1023300080939B072BC1953041F48091E80080FF8A
:10234000FCCF20682093E30021C1963009F05FC0E4
:10235000EB8CFC8C1092E900109299071092980770
:10236000123091F510929707109296070E94A50ED1
:1023700099E0BE016F5F7F4FDB01E92F1D92EA9567
:10238000E9F799831A8391E09E8390EA98879AEF00
:1023900099872091980730919907275F3F4F3C8399
:1023A0002B838D831092E900109299071092980761
:1023B000F0929707E092960749E050E080E00E9493
:1023C0007E0E0E94A50EE2C0F0929707E09296075B
:1023D0000E94150EDC011296ED90FC901397E1140B
:1023E000F10409F4C0C0D701ED91FC910480F5819E
:1023F000E02DBE016B5E7F4FC7010995009719F074
:102400000CF0C4C0C7C0F701E084F184E8CF973076
:1024100009F4C0C0983021F481E08093F100B6C087
:10242000993009F0B3C0837009F0B4C0E2E5F1E07F
:1024300081E021E036E39081992361F08093E90007
:102440002093EB0091919093EC003093ED008F5F1F
:10245000873089F78EE78093EA001092EA008F892F
:102460008093B30793C08B8D9C8D1092E9001092DE
:102470009907109298079093970780939607898DF4
:10248000811156C08E899D89913A59F4813209F0A3
:1024900081C047E050E069E371E080E00E947E0E79
:1024A00075C0913209F076C0833289F4888D90E04E
:1024B000982F88272F89822BA0E0B0E080933501E8
:1024C00090933601A0933701B09338015FC08032FA
:1024D00069F48091E80082FFFCCF67E089E391E036
:1024E0000E9490138BEF8093E80006C0823209F0BF
:1024F0004DC08F898093400180919A07882319F0FD
:10250000EEEFFAE002C0E0E0F8E08091390190914E
:102510003A01A0913B01B0913C01803B9440A10560
:10252000B10509F07BC08091400180FF93C076C067
:102530000E94150EDC0112960D911C911397011546
:10254000110541F1D801ED91FC910190F081E02D50
:10255000BE016B5E7F4FC8010995811117C0F8015C
:1025600000851185ECCF113009F44EC0133091F481
:102570008F89882309F445C0823081F440E860E106
:1025800086E492E00E94410E882321F08EEF809332
:10259000E80079C081E28093EB0075C0813029F4B6
:1025A00040E86BE08AE392E0EDCF833099F70E9438
:1025B000150EDC011296ED90FC9013978E010F5FC3
:1025C0001F4F6801E114F10479F0D701ED91FC91FE
:1025D0000680F781E02DB801C7010995080F111D8C
:1025E000F701E084F184EECFD8011C92F60101904E
:1025F0000020E9F73197BF016C197D0940E0C60161
:10260000C1CF64E272E002C068E272E06115710558
:1026100009F2FB01449150E080E840CF0FB6F894F6
:10262000A89580916000886180936000109260009E
:102630000FBEA895EE3F2AE0F20739F08091FE0A1E
:102640009091FF0A91838083A1CF1092FF0A10928C
:10265000FE0A9CCFEE3F8AE0F80731F0808191813D
:102660009093FF0A8093FE0A87E797E79183808320
:102670009BE088E10FB6F894A895809360000FBEA8
:102680009093600083CF6C960FB6F894DEBF0FBEB8
:10269000CDBFDF91CF91FF91EF91BF91AF919F910E
:1026A0008F917F916F915F914F913F912F911F91EA
:1026B0000F91FF90EF90DF90CF900F900FBE0F9093
:1026C0001F9018954091980750919907209196076F
:1026D0003091970742175307B4F49091E800957032
:1026E000E1F39091E80092FD19C08093F100809190
:1026F00098079091990701968F739927892B19F460
:102700008EEF8093E8008091980790919907019649
:10271000909399078093980781E0089580E0089549
:10272000615030F02091F100FC0120830196F8CF38
:10273000289884E68093B1070895CF93DF93CDB7AF
:10274000DEB7C154D1090FB6F894DEBF0FBECDBFBE
:102750007894109281008091810082608093810042
:1027600080918100816080938100809180008160F0
:10277000809380008091910082608093910080918D
:102780009100816080939100809191008860809396
:102790009100809190008160809390008091710001
:1027A0008160809371008091C10084608093C1003A
:1027B0008091C10082608093C1008091C1008160DE
:1027C0008093C1008091C30081608093C300809199
:1027D000C00082608093C0008091C20081608093BD
:1027E000C20080917A00846080937A0080917A00A0
:1027F000826080937A0080917A00816080937A0071
:1028000080917A00806880937A001092B3071092CA
:102810009B071092B2078091D70081608093D70008
:1028200080EA8093D80089B5806189BD89B58260CE
:1028300089BD09B400FEFDCF61E070E080E090E06A
:102840000E9485028091D8008F7C80618093D8009F
:102850008091E000807F8093E0008091E1008E7E97
:102860008093E1008DE08093E200559A209AEEEF8C
:10287000FFE7859194918B3F9C4D19F481E0809303
:102880009A0710926A018091E2008B7F8093E200A8
:1028900082E08093C8001092CD0080E18093CC004C
:1028A0008091C90088698093C900539A61E089E0EA
:1028B0000E94F80161E08AE00E94F80161E085E091
:1028C0000E94F80161E086E00E94F801809180009A
:1028D000826080938000809180008E7F8093800052
:1028E00080918100817F809381008091810081614E
:1028F0008093810080918600909187008F6F9F6305
:1029000090938700809386008091800080688093F8
:102910008000809180008062809380008091C4005C
:1029200080648093C4008091C1008D7F8093C1003A
:102930008091C10085608093C1008091C300816057
:102940008093C30083E08093BF008FEF8093D1001A
:102950008091C00082648093C0008091C200896031
:102960008093C20080EE9BEF9093C1018093C001E1
:102970009093C3018093C2019093C5018093C401D9
:102980009093C7018093C6010E94FF046CE271E03E
:1029900080E090E00E948502109275010E94190665
:1029A0004EE050E060E070E085E791E00E94C02AD0
:1029B000E5E7F1E085E52DE0222E2E0E2BAE3BACB7
:1029C0003E1619F09191890FFACF909182018917E3
:1029D00041F01092750188E893E19093770180931C
:1029E00076010E941906409175014F5F68E282E00E
:1029F0000E94ED0568EC70E080E090E00E948502A6
:102A000064E670E080E090E00E9485025898599852
:102A10001092B9001CE01093B80084E08093BC00D1
:102A200064E670E080E090E00E9485021093B800B8
:102A300040E86BE688E60E94A60365E070E080E06F
:102A400090E00E94850243E06BE688E60E94A603C0
:102A500042E06AE188E60E94A60348E16BE188E66D
:102A60000E94A60342E067E388E60E94A6036AE0AC
:102A700070E080E090E00E9485026AE070E080E013
:102A800090E00E94850226E130E044E952E06AEAE3
:102A900087E70E94EF0384E992E0FC013196DC01B4
:102AA000AE17BF0730F42C9130813D9320833197CE
:102AB000F7CF029612E08A3A910779F765E070E065
:102AC00080E090E00E9485020E94D7038091C803B5
:102AD0009091C903A091CA03B091CB0388579C4E33
:102AE000AF4FBF4F8093B1029093B202A093B30255
:102AF000B093B40240E16CE188E60E94A60300E0D6
:102B000012E010930C0300930B0388ED90E0909378
:102B1000FE028093FD028091380284608093380227
:102B20000E945F02709367036093660310939201A3
:102B30000093910188EC90E090937401809373016D
:102B400080917A00846080937A0080917A008D7FF2
:102B500080937A0080917A008E7F80937A008091B2
:102B6000390280688093390261E084E00E94F801B4
:102B700061E08CE00E94F80161E088E00E94F801C9
:102B800061E08BE00E94F80160E087E10E94F801BB
:102B900083E084BD89E085BD85EB87BD86ED91E04E
:102BA00095E0292E280E22962FAE2297809138028A
:102BB00081FF92C080913702882309F48DC08091F3
:102BC0003602811140C080912C0290912D028F35E8
:102BD000954094F4809141019091420190932D028F
:102BE00080932C02813D27E092076CF5019690932B
:102BF00042018093410127C081E080933602809199
:102C0000C8039091C903A091CA03B091CB038093EC
:102C1000C4039093C503A093C603B093C7038091E8
:102C2000220290912302A0912402B09125028650A5
:102C30009F4FAF4FBF4F80931E0290931F02A093F0
:102C40002002B093210280913602882309F444C007
:102C50008091C8039091C903A091CA03B091CB039E
:102C60004091C4035091C5036091C6037091C7039E
:102C7000841B950BA60BB70B80383FE4930732E11A
:102C8000A307B10548F480914101909142019093CE
:102C90002D0280932C0220C02091B8073091B907F3
:102CA00030932D0220932C02803A904FA941B10518
:102CB00098F03093C3032093C2038091BA07909198
:102CC000BB0790934201809341011092370210920A
:102CD000360281E080931D0287E10E9434029093C6
:102CE000C1038093C003892BA9F48091200188231C
:102CF00089F08091BF038F5F8093BF031092200102
:102D00000E94BF026093BB037093BC038093BD031A
:102D10009093BE030E94BF026093B7037093B80301
:102D20008093B9039093BA030091BB031091BC0345
:102D30002091BD033091BE03DC01CB01801B910BC0
:102D4000A20BB30B8093B3039093B403A093B5038A
:102D5000B093B603843C9940A105B10520F081E011
:102D60008093200102C0109220018091BF03823025
:102D7000D1F060F4882399F0813009F061C02C987B
:102D80005C985E9A1092B2032EE313C0833001F177
:102D9000843009F055C081E08093B2035BC02C9A67
:102DA0005C985E9855C02C985C9A5E981092B2031D
:102DB00024E52093DC019EE19093E60187E1809376
:102DC000F0012093DD019093E7018093F10142C06F
:102DD00081E08093B2038091B4079091B5071816F3
:102DE000190674F480912C0290912D02883E63E0C4
:102DF000960734F0019790932D0280932C022AC0FD
:102E00008091B6079091B70797FF03C09195819580
:102E100091090297FCF010922D0210922C0281E091
:102E200090E090938903809388030E94BF0260938F
:102E300080037093810380938203909383030AC07D
:102E40001092BF0381E090E090931F0180931E01D8
:102E50001092B2038091B203882309F49CC0809140
:102E6000B0039091B103892BE1F480911E01909100
:102E70001F0181309105A9F42C985C9A5E9890937B
:102E8000B1038093B00310921F0110921E010E94A3
:102E9000BF026093AC037093AD038093AE03909335
:102EA000AF030E94BF026093A8037093A9038093AD
:102EB000AA039093AB030091AC031091AD03209152
:102EC000AE033091AF03DC01CB01801B910BA20B51
:102ED000B30B8093A4039093A503A093A603B09390
:102EE000A70387379140A105B105B8F08091B003E1
:102EF0009091B103019789F42C985C985E98109298
:102F0000B1031092B0030E94BF026093A0037093BC
:102F1000A1038093A2039093A3030E94BF02609336
:102F20009C0370939D0380939E0390939F03009155
:102F3000A0031091A1032091A2033091A303DC010F
:102F4000CB01801B910BA20BB30B80939803909342
:102F50009903A0939A03B0939B0387379140A105EF
:102F6000B105C8F08091B0039091B103892B99F419
:102F70002C985C9A5E9881E090E09093B1038093E6
:102F8000B0030E94BF026093AC037093AD038093C3
:102F9000AE039093AF0380911C02882309F456C0BE
:102FA00090919703809196039230C8F4811120C0CC
:102FB00084B5806484BD81E08093960380911D0177
:102FC0008823B1F00E94BF02609392037093930331
:102FD000809394039093950310921D0109C0811171
:102FE00007C010921C0281E080931D01109297038C
:102FF0000E94BF0260938E0370938F0380939003AF
:103000009093910300919203109193032091940364
:1030100030919503DC01CB01801B910BA20BB30B0C
:1030200080938A0390938B03A0938C03B0938D03BA
:10303000892B8A2B8B2B51F084B58F7B84BD10920A
:103040009603809197038F5F809397038091880305
:1030500090918903892B59F10E94BF0260938403E8
:103060007093850380938603909387030091800378
:10307000109181032091820330918303DC01CB0105
:10308000801B910BA20BB30B80937C0390937D0369
:10309000A0937E03B0937F0388389341A105B105C7
:1030A00030F01092BF0310928903109288030E949F
:1030B00028088091C8039091C903A091CA03B091D8
:1030C000CB03409178035091790360917A0370911A
:1030D0007B03481759076A077B0708F0F9C1805E30
:1030E000914BAF4FBF4F8093780390937903A09398
:1030F0007A03B0937B0380910D0190910E01909320
:1031000027028093260280910F01909110019093E5
:1031100029028093280280911101909112019093CD
:103120002B0280932A0280913702811119C080916D
:103130001301909114012091C2033091C303281709
:10314000390770F41092C3031092C20310921D024B
:10315000809113019091140190932D0280932C0281
:10316000809115019091160190932F0280932E0269
:103170008091170190911801209176033091770387
:103180002817390771F080911701909118019093D9
:1031900031028093300290937703809376031092EC
:1031A0001D028091190190911A019093330280932E
:1031B000320280911B0190911C0190933502809303
:1031C000340280911A0290911B02CD97D4F1809124
:1031D000380281FF36C08CED95E0909327028093F2
:1031E0002602909329028093280290932B028093C9
:1031F0002A02809110029091110220912C023091AC
:103200002D022817390714F488EE93E090932D02CD
:1032100080932C0280911A0290911B02853091407C
:103220003CF00E94D607809138028E7F809338024E
:103230008091740390917503019690937503809328
:10324000740380911A0290911B02CD9734F0809103
:10325000380281FD02C00C94062A80911A029091D6
:103260001B02019690931B0280931A02E6E2F2E0A1
:1032700010E0812F90E09595879595958795182F6B
:10328000219131912D3444E0340724F010682C361C
:1032900037400CF4106462E0EE32F60751F780918B
:1032A0007303181308C0809172038A3F30F48F5F54
:1032B0008093720302C01092720310937303809183
:1032C0002C0290912D028D34944044F510926D03A0
:1032D00010926C0310926F0310926E0310927103A0
:1032E00010927003109269031092680310926B039E
:1032F00010926A038091050290910602892B71F069
:103300009091D60180913802992329F080FF03C063
:103310000E94EA0703C081FD0E94D60780917203D4
:10332000843171F48091380281FF11C080910502CF
:1033300090910602892B21F41F3511F40E94D607C3
:10334000AEE2B2E080E090E0E0E0F0E05FC0173590
:1033500069F480E092E090939201809391018AE079
:1033600090E0909374018093730109C01B3639F487
:103370000E945F027093670360936603E1CF8091C0
:10338000050290910602892B29F41F3619F40E9438
:10339000EA07D6CF173939F480E092E09093D5014F
:1033A0008093D401CDCF173A31F480913A028160F5
:1033B00080933A02C5CF1B3B31F480910302909178
:1033C0000402029607C0173B59F4809103029091C2
:1033D0000402029790930402809303020C940F2A34
:1033E0001E3B31F48091010290910202029608C0C6
:1033F0001D3B09F0A5CF8091010290910202029736
:1034000090930202809301020C940F2A6D917D919A
:1034100041E050E0653A16E0710714F440E050E0F6
:103420009C012E5F3F4F7A0102C0EE0CFF1C2A95D3
:10343000E2F701E010E0643125E0720714F000E0EB
:1034400010E0A801082E02C0440F551F0A94E2F7AD
:103450004E295F296551754021E030E06F38714099
:1034600010F020E030E0BC016F5F7F4F02C0220F00
:10347000331F6A95E2F7422B532BE42BF52B03966F
:103480008C30910519F625E032E066ED71E0D90146
:103490008D919D919D018E239F2341E0892B09F4FD
:1034A00040E0DB014D93BD0122962FAC22972A12FA
:1034B000EECF8091D70181110C94162A80911A02C7
:1034C00090911B02CD9714F00C94162A0C948C2A20
:1034D00020915703253018F0255020935703209151
:1034E0005703223009F45CC228F4222351F0213022
:1034F00059F0BDC4233009F4B0C4243009F4B2C477
:10350000B6C421E020935703209157032F5F2093E7
:1035100057034091B1025091B2026091B302709191
:10352000B40284179507A607B70708F439C2805973
:10353000984EAF4FBF4F8093B1029093B202A093C9
:10354000B302B093B4028CE08093B8008091B002D3
:1035500081117EC08FEE0E948A0384EC8093BC00B0
:103560000E946B038091BB008093AB0204E8009340
:10357000BC000E946B038091BB0014E91093BC0057
:103580008093AA0244EF64EF87E70E94A6038EEEC1
:103590000E948A0386EF8093BB000093BC000E94C8
:1035A0006B031093BC0081E08093B002E0918F0226
:1035B00021E02E0F253109F420E0809190029091B6
:1035C0009102A0919202B091930214E0E19FF00168
:1035D0001124E55CFD4F80839183A283B3834091E6
:1035E000DB025091DC026091DD027091DE02840FFB
:1035F000951FA61FB71F34E0239FF0011124E55C3F
:10360000FD4F4081518162817381841B950BA60B14
:10361000B70B8093DB029093DC02A093DD02B093A2
:10362000DE0220938F028091B1029091B202A091AC
:10363000B302B091B402885F9D4AAF4FBF4F8093F1
:10364000B1029093B202A093B302B093B4020FC43C
:103650008FEE0E948A0314EC1093BC000E946B034F
:103660008091BB008093AE021093BC000E946B035C
:103670008091BB008093AD0284E88093BC000E94DF
:103680006B038091BB0094E99093BC008093AC02E3
:103690000E94D7032091AA023091AB02A90160E0F9
:1036A00070E080919E0290919F029A01AB01281BCD
:1036B000390B41095109A0919C02B0919D020E94D1
:1036C000802E6B017C01FFE0F594E794D794C794BA
:1036D000FA95D1F76091A6027091A702CB01770FFE
:1036E000AA0BBB0BBC01CD01ABE0660F771F881F97
:1036F000991FAA95D1F72091A8023091A9028901BA
:10370000330F220B330BA90198012C0D3D1D4E1DCB
:103710005F1D0E94432EC20ED31EE41EF51EAAE0BA
:10372000B0E0A70196010E94802EDC01CB01089633
:10373000A11DB11D14E0B595A795979587951A958C
:10374000D1F78093D3029093D402A093D502B09383
:10375000D60240EAC41A4FE0D40AE108F108A701F2
:103760009601C701B6010E94DD2D1B012C010CE062
:1037700055944794379427940A95D1F72D863E8621
:103780004F86588A8090940290909502A09198025A
:10379000B09199020E948B2E2B013C018DE0759413
:1037A0006794579447948A95D1F7A091A002B0915D
:1037B000A1022D853E854F8558890E948B2EBB27FF
:1037C00097FDB095AB2F840D951DA61DB71D0296D4
:1037D000A11DB11D32E0B595A795979587953A95AE
:1037E000D1F79C01AD0130584F4F5F4FA0919A0225
:1037F000B0919B020E94802E2B013C014FE07694F9
:103800006794579447944A95D1F78091AC02909170
:10381000AD02A091AE02B091AF029C01AD0165E096
:1038200056954795379527956A95D1F7298B3A8B09
:103830004B8B5C8B092C000CAA08BB0872E0880C2F
:10384000991CAA1CBB1C7A95D1F7A091A202B09139
:10385000A3022D853E854F8558890E948B2E9B01A2
:10386000AC01EBE05595479537952795EA95D1F74B
:103870002D873E874F87588BA0919602B091970273
:10388000A70196010E948B2EDC01CB01FBE0B595D0
:10389000A79597958795FA95D1F74D855E856F85A4
:1038A0007889840F951FA61FB71F880D991DAA1D23
:1038B000BB1D13E0880F991FAA1FBB1F1A95D1F7D4
:1038C000BC01CD016E5F7F4F8F4F9F4F24E030E0F2
:1038D00040E050E00E94432E89889A88AB88BC88DB
:1038E000821A930AA40AB50AA5019401AAE6B8E1CE
:1038F0000E94802E97FD0BC0660F771F881F991FAF
:10390000A30192010E94212E69017A010AC0A3013C
:1039100092010E94212E69017A01CC0CDD1CEE1C63
:10392000FF1C9927F7FC9A958F2D7E2D6D2D9B01FD
:10393000AC010E94DD2D9B01AC01AEEDBBE00E940D
:10394000802E4C01BB2497FCB094AB2CA3E4B3EEC7
:10395000A70196010E948E2EBB2797FDB095AB2F35
:10396000880E991EAA1EBB1E1FEC810E1EE0911E22
:10397000A11CB11C44E0B594A794979487944A95F0
:10398000D1F7C80CD91CEA1CFB1CC0929002D09243
:103990009102E0929202F09293021092B00267C2FA
:1039A000809157038F5F809357030E945F0220919D
:1039B000DF023091E0025B01A21AB30A28EAA216E4
:1039C00021E6B20608F449C27093E0026093DF0278
:1039D000009173011091740101151105C1F16091FD
:1039E000DB027091DC028091DD029091DE020E9488
:1039F000042C0E94D72C6093D7027093D802809336
:103A0000D9029093DA028091D3029091D402A091CE
:103A1000D502B091D602BC01CD016D5475498F4FCE
:103A20009F4F0E94042C2EE83BE24AEE51E40E9494
:103A30001F2D6093CF027093D0028093D102909398
:103A4000D202015011091093740100937301609127
:103A5000DB027091DC028091DD029091DE020E9417
:103A6000042C0E94D72C9B01AC016091D70270916D
:103A7000D8028091D9029091DA020E94E82A20911E
:103A8000CF023091D0024091D1025091D2020E94D7
:103A90001F2D0E94CC2B6B017C016093CB02709395
:103AA000CC028093CD029093CE02209122023091DD
:103AB00023024091240250912502A3E0B0E00E942D
:103AC000802EC60ED71EE81EF91ECC0CDD1CEE1C87
:103AD000FF1C03E0F594E794D794C7940A95D1F7B7
:103AE000C0922202D0922302E0922402F092250298
:103AF00020901E0230901F02409020025090210220
:103B00002D863E864F86588AD201C1018C199D09A7
:103B1000AE09BF098C391FEF9107A107B1075CF00F
:103B200085369105A105B10524F084E690E0A0E07A
:103B3000B0E01C0104C0BCE92B2E33243A94A091C0
:103B40008901B0918A012091F1023091F2024091F5
:103B5000F3025091F4020E948B2E2B013C01A091A4
:103B60008B01B0918C012091F5023091F6024091C9
:103B7000F7025091F8020E948B2E460E571E681EC7
:103B8000791EA0918D01B0918E012091F9023091A2
:103B9000FA024091FB025091FC020E948B2E640DB0
:103BA000751D861D971D0E94042C2091ED023091F9
:103BB000EE024091EF025091F0020E941F2D0E94F0
:103BC000CC2B2091380221FD14C04091C9025091A4
:103BD000CA029A01A3E035952795AA95E1F7DA0183
:103BE000A21BB30B9D01260F371F3093CA022093EF
:103BF000C9022091C9023091CA02F3E03595279598
:103C0000FA95E1F78B01021B130B8091C102811120
:103C10001BC060910B0370910C0380E090E00E9448
:103C2000022C9B01AC0168EA79E880E89AE30E94E3
:103C30005A2B6093BD027093BE028093BF02909393
:103C4000C00281E08093C102B50180E090E00E9453
:103C5000022C4B015C01B801110F880B990B0E94DB
:103C6000042C2091BD023091BE024091BF025091C0
:103C7000C0020E941F2DA50194010E941F2D2091BA
:103C8000B9023091BA024091BB025091BC020E942D
:103C9000E92A2B013C018091B5029091B602A091D6
:103CA000B702B091B802A7019601281B390B4A0B45
:103CB0005B0BCA01B9010E94042C20E034E244E706
:103CC00059E40E941F2DA50194010E945A2B0E94C5
:103CD000CC2BC092B502D092B602E092B702F0921D
:103CE000B8026D3231E0730714F06CE271E08B01C1
:103CF000643D7E4F14F404ED1EEFC801099643970E
:103D000060F0101611061CF40A50110908C00115C4
:103D1000110529F0065F1F4F02C000E010E026EFFA
:103D200038E24CE75FE3C301B2010E941F2D6B0133
:103D30007C01B801110F880B990B0E94042C2FE80D
:103D400032EC45E75CE30E941F2D9B01AC01C701EB
:103D5000B6010E94E92A4B015C016093B90270939D
:103D6000BA028093BB029093BC02B101330C880B62
:103D7000990B0E94042CA50194010E94E82A0E943C
:103D8000CC2B6B017C018091DF0190E08C9D800148
:103D90008D9D100D9C9D100D1124A801440F452FE1
:103DA000441F550B493C510514F048EC50E0483392
:103DB0006FEF560714F448E35FEF8091E90190E05C
:103DC0008C9D80018D9D100D9C9D100D112476E021
:103DD000159507957A95E1F780915A0390915B03C9
:103DE000080F191F013375E7170714F000E315E7F3
:103DF000003D8AE8180714F400ED1AE810935B03FD
:103E000000935A03012F110F110B040F151F093CCA
:103E1000110514F008EC10E008339FEF190714F4B3
:103E200008E31FEF1093590300935803C501B40131
:103E30000E94CC2B70936C0160936B01D0926E0149
:103E4000C0926D011093700100936F01AD85BE8526
:103E5000B0937201A09371010AC0809157038F5FE4
:103E600080935703809157038F5F8093570326E019
:103E700030E043E851E06BE388E60E94EF03809175
:103E8000830190E0982F882720918401822B9195BF
:103E900081959109B3E095958795BA95E1F790934F
:103EA0000E0380930D038091850190E0982F882761
:103EB00020918601822B91958195910903E095953A
:103EC00087950A95E1F79093100380930F038091F3
:103ED000870190E0982F882720918801822B33E07A
:103EE000959587953A95E1F7909312038093110386
:103EF0008091D4019091D501009709F49BC0E1EE27
:103F0000F2E00DE013E026E731E08115B2E09B0717
:103F100021F41082118212821382D8014D915C919A
:103F20001197052E000C660B770BC080D180E280C4
:103F3000F3804C0D5D1D6E1D7F1D41935193619368
:103F400071931D921D928D01D9011D921D929D01AB
:103F5000B2E0ED3EFB07C9F6019709F062C080911F
:103F6000E1029091E202A091E302B091E40279E0D3
:103F7000B595A795979587957A95D1F79093770101
:103F8000809376018091E5029091E602A091E7028C
:103F9000B091E802E9E0B595A79597958795EA95E0
:103FA000D1F790937901809378018091E902909103
:103FB000EA02A091EB02B091EC02F9E0B595A79569
:103FC00097958795FA95D1F720910B0330910C03C3
:103FD000821B930B90937B0180937A0110920202D3
:103FE000109201021092040210920302E5E7F1E040
:103FF00085E52BAC2E1619F09191890FFACF80939D
:1040000082014EE050E060E070E085E791E00E94C0
:10401000D02A41E064E18FE00E94ED0581E08093C9
:10402000A3078091D4019091D50101979093D50178
:104030008093D40180910D0390910E03209176011D
:1040400030917701821B930B90930E0380930D03A5
:1040500080910F03909110032091780130917901A4
:10406000821B930B9093100380930F038091110395
:104070009091120320917A0130917B01821B930B66
:1040800090931203809311030E945F026B017C01E5
:104090008091130390911403B601681B790B80E0A3
:1040A00090E00E94022C24E836ED46EA51E30E949B
:1040B0001F2D2B013C01D0921403C09213032AEB55
:1040C00031E03E8F2D8FAE014F5F5F4F5E874D8792
:1040D0006DE0262E63E0362E60E071E078A36F8FEE
:1040E00089E891E09A8F898F9E8B8D8B8901C12CF5
:1040F000D12C7601F801619171918F01072E000C8E
:10410000880B990B0E94042CA30192010E941F2D81
:10411000AD85BE856D937D938D939D93BE87AD8751
:10412000EF8DF8A180819181A281B381F10121916C
:1041300031911F014C015D0144E0B594A79497941F
:1041400087944A95D1F7AC01BD01481959096A090C
:104150007B09C901330FAA0BBB0B840F951FA61F48
:10416000B71FEF8DF8A181939193A193B193F8A319
:10417000EF8F54E0B595A795979587955A95D1F708
:10418000ED89FE8981939193FE8BED8B9C01DC017F
:104190000E94622EC60ED71EE81EF91EF1E0003CFA
:1041A0001F0709F0A7CFA4E6B0E0A70196010E947F
:1041B000802E6B017C01A0910B03B0910C039D013B
:1041C0000E946A2E9B01AC01C701B6010E94432EDA
:1041D0002F8F38A349A35AA32090FF0230900003E9
:1041E00040900103509002032D863E864F86588AE8
:1041F0008090030390900403A0900503B090060301
:10420000898A9A8AAB8ABC8AC0900703D090080337
:10421000E0900903F0900A0349805A806B807C800B
:104220008D809E80AF80B8848D8A9E8AAF8AB88E3A
:104230002D853E854F855889C301B2010E941F2DEF
:104240004B015C0129893A894B895C896D897E899A
:104250008F89988D0E941F2D9B01AC01C501B4016F
:104260000E94E92A9B01AC01C701B6010E94E82A1D
:1042700060930703709308038093090390930A03E4
:1042800089849A84AB84BC84A7019601C301B201DE
:104290000E941F2D2B013C0129893A894B895C8999
:1042A000C501B4010E941F2D9B01AC01C301B201E5
:1042B0000E94E82A9B01AC016D857E858F859889D7
:1042C0000E94E92A6093FF02709300038093010328
:1042D00090930203A70196016D897E898F89988D3D
:1042E0000E941F2D6B017C012D853E854F855889CD
:1042F000C501B4010E941F2D9B01AC01C701B6018D
:104300000E94E92A9B01AC0169897A898B899C8981
:104310000E94E92A609303037093040380930503CA
:10432000909306034091FD025091FE022091890175
:1043300030918A0137FF03C0319521953109809171
:10434000390224173507A8F420918B0130918C0194
:1043500037FF03C03195219531092417350748F4FB
:1043600020918D0130918E011216130614F480688D
:1043700001C08F77809339028F8D98A1A9A1BAA12E
:1043800089549109A109B109CC97A105B10508F497
:1043900039C16091FF0270910003809101039091F7
:1043A00002030E94CC2B6D877E878F87988B60934A
:1043B000F1027093F2028093F3029093F402609101
:1043C00003037091040380910503909106030E94FA
:1043D000CC2B698B7A8B8B8B9C8B6093F5027093C3
:1043E000F6028093F7029093F802609107037091B0
:1043F00008038091090390910A030E94CC2B6D8BD6
:104400007E8B8F8B988F6093F9027093FA02809362
:10441000FB029093FC022D853E854F855889CA0189
:10442000B9010E94DD2D6B017C012D893E894F89E8
:10443000588DCA01B9010E94DD2D26013701460EB3
:10444000571E681E791EC301B2010E94042C698F99
:104450007A8F8B8F9C8F898D9A8DAB8DBC8DB59506
:10446000A79597958795FFEDCF2EF9E5DF2EF7E31A
:10447000EF2EFFE5FF2EC81AD90AEA0AFB0A20E050
:1044800030E040E05FE3C701B6010E941F2D4B0101
:104490005C01A7019601698D7A8D8B8D9C8D0E94A0
:1044A0001F2DA70196010E941F2D9B01AC0160E00A
:1044B00070E080E490E40E94E82A9B01AC01C50111
:1044C000B4010E941F2D6F8F78A389A39AA3298915
:1044D0003A894B895C89CA01B9010E94DD2D640DBE
:1044E000751D861D971D0E94042C4B015C01DC018B
:1044F000CB01B595A795979587950FEDC02E09E54A
:10450000D02E07E3E02E0FE5F02EC81AD90AEA0AEA
:10451000FB0A20E030E040E05FE3C701B6010E9403
:104520001F2D2B013C01A7019601C501B4010E947A
:104530001F2DA70196010E941F2D9B01AC0160E079
:1045400070E080E490E40E94E82A9B01AC01C30182
:10455000B2010E941F2D6093ED027093EE028093D2
:10456000EF029093F0022D893E894F89588D6D8519
:104570007E858F8598890E943C059093CF0180931A
:10458000CE01298D3A8D4B8D5C8D6F8D78A189A1DF
:104590009AA10E941F2D0E94CC2B9B01AC0169891E
:1045A0007A898B899C890E943C059093D1018093E4
:1045B000D0010E9449048091BA019091BB019A8375
:1045C00089838091BC019091BD019C838B838091F4
:1045D000BE019091BF019E838D830E945F02609314
:1045E0003403709335038093360390933703A09080
:1045F0002C02B0902D021CEDA11615E0B1060CF4B2
:104600004DC032C00FEF12E0A98DBA8DED90FD9034
:10461000BA8FA98F20E030E046E154E4F8016081D0
:104620007181828193810E941F2D4B015C01B70132
:10463000FF0C880B990B0E94042C9B01AC01C50157
:10464000B4010E94E92A20E037E14AED5AE30E94D2
:104650001F2DD8016D937D938D939D938D01B3E0B4
:104660000B301B0789F695CE9091FE01E0EDAE165A
:10467000E7E0BE0684F4A5014C5D5540949F90018F
:10468000959F300D1124C90164EF71E00E94F92D4E
:1046900044E6461B04C044E6491B01C044E6809141
:1046A000FC01682E712C8091FD01482E512C66E290
:1046B000262E62E0362E23E533E03CAB2BAB70EFC9
:1046C000872E71E0972E6EE373E07EAB6DAB8EE5C7
:1046D00093E09E8B8D8BFC017A8B698B23E533E015
:1046E0003E872D8710E004E6D101ED90FD901D017D
:1046F000BDEDEB16B5E0FB0634F020EDE21627E049
:10470000F20664F008C02CED35E02E193F09243F75
:1047100051E0350734F024EF31E003C097012C5D00
:104720003540123009F443C0C90164E670E00E94CC
:10473000F92DDB01AA0FBB1FA255BE4FCD90DC9017
:10474000DB01AA0FBB1FA055BE4F0D90BC91A02D41
:10475000AC19BD09069FC001079F900D1124B90136
:10476000681B790BA69FC001A79F900DB69F900D67
:10477000112464E670E00E94F92D6C0D7D1D71839B
:104780006083269DC001279D900D369D900D1124BC
:1047900064EF71E00E94F92D802F861B849FC00179
:1047A000112464E670E00E94F92D262F0FC031839A
:1047B0002083249DC001259D900D349D900D1124D2
:1047C00064EF71E00E94F92D202F261BD40154972D
:1047D0008C91289FC001112464E670E00E94F92D9D
:1047E000AD85BE856D93BE87AD87D4018D914D019A
:1047F000289FC001112464E670E00E94F92DA98968
:10480000BA896D93BA8BA98BBCEDEB16B5E0FB06AC
:104810003CF4808191819195819591099183808368
:104820001F5F3296133009F05FCFECE4AE16E4E080
:10483000BE064CF09501F1EDAF16F7E0BF062CF087
:1048400020ED37E002C02CE434E02C543440A8EED4
:10485000B3E00E946A2E24E833E040E050E00E947A
:10486000212E89019A01C80164E670E00E94F92DA9
:10487000FB01EE0FFF1FE856FE4F0190F081E02D87
:10488000DB01AA0FBB1FA656BE4F4D915C914E1B7C
:104890005F0BA4E6A69FC001A79F900D1124081BE3
:1048A000190B409FC001419F900D509F900D112406
:1048B00064E670E00E94F92DE60FF71FF0936503A0
:1048C000E09364038091390283FF73C06091940187
:1048D00070919501719561957109072E000C880BF7
:1048E000990B0E94042C29E33AEF4EE85CE30E9406
:1048F0001F2D6B017C010E94552B6D877E878F8752
:10490000988BC701B6010E948C2D2B013C01609150
:10491000600370916103072E000C880B990B0E94B5
:10492000042C4B015C0160915E0370915F03072EC4
:10493000000C880B990B0E94042C6B017C012D85C7
:104940003E854F8558890E941F2D698B7A8B8B8BF2
:104950009C8BA3019201C501B4010E941F2D9B01F4
:10496000AC0169897A898B899C890E94E82A0E9416
:10497000CC2B70935F0360935E032D853E854F853E
:104980005889C501B4010E941F2D4B015C01A30190
:104990009201C701B6010E941F2D9B01AC01C50108
:1049A000B4010E94E92A0E94CC2B709361036093AA
:1049B000600380912B038F5F80932B0366E00E943E
:1049C000ED2D911127C010912A0381E0810F809372
:1049D0002A0385E10E9434021770E12FF0E0EE0F08
:1049E000FF1FE65EFC4F91838083EAE1F3E080E005
:1049F00090E021913191820F931F13E0EA32F10789
:104A0000C1F7880F991F6091120270E00E94F92D82
:104A10006093930180911A0290911B02CD978CF0C4
:104A20008091380281FF0DC081E080939D078091C5
:104A30001A0290911B02853091401CF082E0809315
:104A40009D0780911A0290911B02CD9724F08091CE
:104A5000380281FF65C580911A0290911B02892B53
:104A600011F410929D078091DA01882321F081E0F2
:104A700080939F0702C010929F0790910C01809134
:104A80001502981710F484E012C080919301909160
:104A90001302981720F090911602891718F41092BB
:104AA000A20707C090911402981768F782E08093DC
:104AB000A20780918F019091900101968636910511
:104AC00020F081E08093A50702C01092A50781E045
:104AD0008093150380919D07823019F400ED17E053
:104AE0006AC0813021F08091A407813069F402E32B
:104AF00010E022E330E048EC50E068EC70E082E344
:104B000090E00E94E70F85C080919C07813049F4B6
:104B100000E010E022E330E040E050E060E070E0D0
:104B2000EECF823019F400E010E01DC0833018F0A1
:104B300000E010E00DC080919E07823019F402E37E
:104B400010E011C080919F07813039F402E310E03A
:104B500022E330E042E350E019C08091A0078130A9
:104B600039F408E710E022E330E040E050E00EC006
:104B70008091A1078130E1F28091A207843049F44D
:104B800000ED17E022E330E048EC50E062E370E033
:104B9000B6CF823039F400ED17E022E330E040E098
:104BA00050E0ABCF813009F499CF8091A3078130D9
:104BB00049F408EC10E022E330E040E050E060E02F
:104BC00070E013C0823039F408EC10E022E330E0EA
:104BD00040E050E008C0833058F008EC10E022E3D9
:104BE00030E048EC50E068EC70E088EC90E089CF71
:104BF0008091AD07813059F400E010E020E030E012
:104C000040E050E060E070E080E090E07ACF0E9409
:104C1000D70E1092A4078091D4019091D501892BD1
:104C200031F48091910190919201892B11F04D9A6C
:104C300008C08091380283FD5D9A8091380281FD21
:104C40005D984091C8035091C9036091CA03709167
:104C5000CB038091160390911703A0911803B09194
:104C6000190384179507A607B70710F59091390225
:104C70008091380297FD19C0877F809338024D9A42
:104C80008091C8039091C903A091CA03B091CB034E
:104C900080569947AE4FBF4F8093160390931703EA
:104CA000A0931803B093190303C08860809338025F
:104CB0000E9428088091380281FF0CC080919301E6
:104CC00090911602981730F490910C01891710F406
:104CD00080930C010E945F02C0903403D090350392
:104CE000E0903603F0903703DC01CB018C199D096D
:104CF000AE09BF098B389240A105B10550F08091F3
:104D000032039091330301969093330380933203DF
:104D10000DC00E945F02DC01CB018C199D09AE0918
:104D2000BF098A389240A105B10598F30E94490451
:104D3000AE014F5F5F4F7A0168EC71E07CA36BA31B
:104D4000ECE2F3E08B0153E0C52ED12CAD8DBE8D8E
:104D50002D913D91BE8FAD8FD7018D919D917D019C
:104D6000280F391F80819181820F931FB6010E9405
:104D70000D2ED8016D937D938D0135952795219347
:104D800031932D8D3E8D205C314001F70E945F02F2
:104D90006093C8037093C9038093CA039093CB03B5
:104DA0002091660330916703DB01A21BB30BB09324
:104DB000D301A093D201709367036093660380913F
:104DC000390280FF41C06091640370916503409196
:104DD0005C0350915D039B01241B350B37FF03C01F
:104DE0003195219531092932310574F081E08093A4
:104DF0005603461757071CF088E290E002C088ED82
:104E00009FEF860F971F1CC080915603882391F057
:104E10008091220290912302A0912402B091250258
:104E200080931E0290931F02A0932002B093210250
:104E3000109256038091580390915903840F951F47
:104E40009093650380936403209160033091610324
:104E500037FF03C031952195310980915E03909110
:104E60005F0397FF03C09195819591096901281708
:104E700039070CF46C01B5EFCB16B1E0DB0624F07A
:104E800094EFC92EDD24D39420903802298A122D64
:104E900010761DA79091E3012091F7011BEF1203FB
:104EA000100111243FA62EA615E0219F1001112408
:104EB00039AA28AA8091ED01198910741AAB1989B1
:104EC00010721CAF2DE433E03EA32DA347E453E062
:104ED0005A8F498F61E473E078A36F8FA8E3B3E042
:104EE000B8AFAFABE8E6F3E0FE8FED8F2CE633E032
:104EF0003E872D87A12CB12C812C912C312C212C7B
:104F0000F12CE12C1FA218A6612C712C20E032E0BC
:104F100029014C185D085AAE49AE492E512C5EAE9F
:104F20004DAE482E512C21965FAE4EAE21975DA41A
:104F3000552009F478C012E08116910409F473C079
:104F4000AD89BE894D915C91440F551FD501A35B7E
:104F5000BE4F0D90BC91A02D4A0F5B1F453FB1E0A5
:104F60005B0714F044EF51E04C30EEEF5E0714F4B1
:104F70004CE05EEFD501A253BE4F8D919C91481B32
:104F8000590BD501A552BE4F96960D90BC91A02D00
:104F90004A0F5B1F2DAD3EADDA010E94792EDC0178
:104FA000CB0107E0B595A795979587950A95D1F719
:104FB0004EA45FA48415950544F03C0148A859A867
:104FC0004816590624F4320102C06EA47FA4AD8DA8
:104FD000BE8D8D919C91DC01A40FB51FA131E7E23C
:104FE000BE0714F0A0E1B7E2A03FF8EDBF0714F44C
:104FF000A0EFB8EDED8DFE8DB183A08321962EAD8F
:105000003FAD21970E94792EDC01CB011CE0B595C4
:10501000A795979587951A95D1F78FA398A71DA562
:10502000103209F478C0AD89BE890D911C91C80178
:105030008D509E4FF401E552FE4F873E934060F441
:10504000618170E0C801B6E0880F991FBA95E1F759
:105050000E940D2E9B0114C0C801012E000CAA0B4A
:10506000BB0BBC01CD01A6E0660F771F881F991FFF
:10507000AA95D1F7218130E040E050E00E94432E14
:10508000EBA1FCA180819181AD85BE856D917C9164
:10509000AC0197FF04C044275527481B590B4138E2
:1050A0005240ACF4281B390B260F371F2138EEE392
:1050B0003E0714F020E83EE32038F1EC3F0714F4FB
:1050C00020E831ECAD85BE852D933C9304C0ED8581
:1050D000FE8511821082AD85BE858D919C91880FD1
:1050E000892F881F990BF401E552FE4F2385289FD5
:1050F000A001299F500D1124F6E055954795FA958A
:10510000E1F72AA8222009F44DC022E0821691047A
:1051100009F457C008C04AA8442009F447C0432DE9
:10512000522D0F2D1E2D9301A9ADBAAD0E94622EF6
:105130001B012C019801D6010E94622EDC01CB01DB
:10514000820D931DA41DB51D1C012D0169E0559410
:105150004794379427946A95D1F729A63AA64BA687
:105160005CA62FA138A5A9ADBAAD0E94622E1B0185
:105170002C019A01D6010E94622EDC01CB01820D26
:10518000931DA41DB51D79E0B595A79597958795B5
:105190007A95D1F7342E252EF02EE12EAC0109A5FB
:1051A0001AA518C0342E252EF02EE12E4CAC44202A
:1051B00069F012E08116910449F04FA158A58301CE
:1051C00009C0342E252EF02EE12E04C0432D522D81
:1051D0000F2D1E2DABA1BCA14D905D90BCA3ABA328
:1051E000EBA9FCA92191FCABEBAB30E0D2010E9412
:1051F000792EDC01CB0136E0B595A795979587957B
:105200003A95D1F7081B190BADA1BEA18D919C91C8
:105210001197F201E81BF90BCF014D925D92BEA3ED
:10522000ADA3A98DBA8D2D913C91EF8DF8A1A081F0
:10523000B181A20FB31FA80FB91F21933193F8A317
:10524000EF8FE98DFA8D81939193FA8FE98FEDA914
:10525000FEA92191FEABEDAB040F151F30E00E94BB
:10526000792EDC01CB0145E0B595A79597958795FB
:105270004A95D1F7081B190BAFA9B8AD0D931D9333
:10528000B8AFAFABBFEF8B1A9B0AE2E0AE0EB11C1A
:105290002D8D3E8D2E5F3F4F3E8F2D8F4D855E8530
:1052A0004E5F5F4F5E874D876D897E896E5F7F4F52
:1052B0007E8B6D8B73E08716910409F038CE2091B8
:1052C0003C0330913D03809162039091630397FF0B
:1052D00003C09195819591094CE95FEF481B590BEB
:1052E000241735073CF0AC014C595F4F24173507A4
:1052F0000CF4A90150933D0340933C0320916403B7
:10530000309165038091380390913903B901681B8E
:10531000790BA0913A03B0913B03FB01EA0FFB1F0D
:10532000E41BF50BF093C101E093C0016A1B7B0BFA
:10533000640F751F7093C3016093C201280F391F5A
:10534000C9018A0F9B1F840F951F9093C5018093FD
:10535000C4012A1B3B0B241B350B3093C701209340
:10536000C601861797070CF4CB01821793070CF43C
:10537000C9018E179F070CF4CF016091170270913D
:10538000180200912C0210912D02E0ECF1E024E0D3
:10539000F22E40ED57E06A01C81AD90AA0EEBBEF21
:1053A00029892270E22E813D37E0930734F0208175
:1053B00031812C0D3D1D31832083208131812617C1
:1053C00037073CF0213D47E0340724F020ED37E07B
:1053D00001C09B01318320830C3454E0150714F481
:1053E000B183A083E11002C0B183A083FA94329606
:1053F000F110D9CF0E94FF0480E090E0892B11F4D6
:105400000C94D6150E9400000C94D6150E94D60765
:10541000809138028E7F809338020C942D1981E0A0
:105420000E945207109272030C94A01980913802C6
:1054300085FD0BC0109269031092680310926B03F4
:1054400010926A038062809338028091D801882389
:1054500089F0809138028F7D8093380286FD0FC0DD
:10546000109269031092680310926B0310926A0302
:10547000806403C0809138028F7B809338028091D2
:10548000D601811105C08091380281608093380275
:105490008091D9018823D1F08091390280FF02C028
:1054A0000C94371F81608093390280912202909181
:1054B0002302A0912402B091250280931E029093B2
:1054C0001F02A0932002B09321020DC080911D0203
:1054D0008823D9F08091390280FF02C00C94371FD5
:1054E0008160809339028091640390916503909369
:1054F0005D0380935C0310925B0310925A03109239
:105500005903109258030C94371F809139028E7FF3
:10551000809339020C94371F809138028F7D93CF8E
:1055200082E080939D0797CAEEE1F8E01382128231
:1055300088EE93E0A0E0B0E084839583A683B783F0
:105540008CE591E0918380838FEF9FEF958784872F
:1055500080914101909142019093BB078093BA07DB
:1055600085E595E09093B9078093B8078091B607D9
:105570009091B7070A979093B5078093B407089561
:10558000DC01CB01FC01F999FECF06C0F2BDE1BD03
:10559000F89A319600B40D9241505040B8F70895F2
:1055A000DC01CB0103C02D910E94DB2A4150504009
:1055B000D0F70895262FF999FECF1FBA92BD81BD6D
:1055C00020BD0FB6F894FA9AF99A0FBE0196089585
:1055D0005058BB27AA270E94002B0C94812C0E94B4
:1055E000482C38F00E944F2C20F039F49F3F19F4DA
:1055F00026F40C94452C0EF4E095E7FB0C943F2C1C
:10560000E92F0E94A62C58F3BA1762077307840784
:10561000950720F079F4A6F50C94C82C0EF4E095CB
:105620000B2EBA2FA02D0B01B90190010C01CA015C
:10563000A0011124FF27591B99F0593F50F4503E07
:1056400068F11A16F040A22F232F342F4427585FF9
:10565000F3CF469537952795A795F0405395C9F711
:105660007EF41F16BA0B620B730B840BBAF09150C9
:10567000A1F0FF0FBB1F661F771F881FC2F70EC068
:10568000BA0F621F731F841F48F48795779567953B
:10569000B795F7959E3F08F0B0CF9395880F08F027
:1056A0009927EE0F9795879508950E94582CE395BA
:1056B0000C94922C0E946E2B0C94812C0E944F2CE7
:1056C00058F00E94482C40F029F45F3F29F00C94D8
:1056D0003F2C51110C94C92C0C94452C0E94A62CE3
:1056E00068F39923B1F3552391F3951B550BBB2711
:1056F000AA2762177307840738F09F5F5F4F220F56
:10570000331F441FAA1FA9F335D00E2E3AF0E0E84C
:1057100032D091505040E695001CCAF72BD0FE2F96
:1057200029D0660F771F881FBB1F2617370748072A
:10573000AB07B0E809F0BB0B802DBF01FF279358E2
:105740005F4F3AF09E3F510578F00C943F2C0C943B
:10575000C92C5F3FE4F3983ED4F38695779567951F
:10576000B795F7959F5FC9F7880F911D9695879517
:1057700097F90895E1E0660F771F881FBB1F621736
:1057800073078407BA0720F0621B730B840BBA0BF4
:10579000EE1F88F7E09508950E94D32B6894B1110D
:1057A0000C94C92C08950E94AE2C88F09F5798F055
:1057B000B92F9927B751B0F0E1F0660F771F881F16
:1057C000991F1AF0BA95C9F714C0B13091F00E9430
:1057D000C82CB1E008950C94C82C672F782F882727
:1057E000B85F39F0B93FCCF3869577956795B39557
:1057F000D9F73EF490958095709561957F4F8F4FC6
:105800009F4F0895E89409C097FB3EF490958095CA
:10581000709561957F4F8F4F9F4F9923A9F0F92F76
:1058200096E9BB279395F695879577956795B795F4
:10583000F111F8CFFAF4BB0F11F460FF1BC06F5FDA
:105840007F4F8F4F9F4F16C0882311F096E911C0EC
:10585000772321F09EE8872F762F05C0662371F00D
:1058600096E8862F70E060E02AF09A95660F771F21
:10587000881FDAF7880F9695879597F9089597F915
:105880009F6780E870E060E008959FEF80EC0895E6
:1058900000240A941616170618060906089500240F
:1058A0000A94121613061406050608950C94452C46
:1058B0000E94AE2CD8F3E894E0E0BB279F57F0F0AD
:1058C0002AED3FE049EC06C0EE0FBB0F661F771FC5
:1058D000881F28F0B23A62077307840728F0B25A8B
:1058E000620B730B840BE3959A9572F7803830F452
:1058F0009A95BB0F661F771F881FD2F790480C94AC
:10590000962D092E0394000C11F4882352F0BB0F3E
:1059100040F4BF2B11F460FF04C06F5F7F4F8F4FC7
:105920009F4F0895EF93E0FF07C0A2EA2AED3FE002
:1059300049EC5FEB0E94002B0E94812C0F90039496
:1059400001FC9058ECEAF0E00C94C92D57FD9058FA
:10595000440F551F59F05F3F71F04795880F97FB33
:10596000991F61F09F3F79F08795089512161306ED
:105970001406551FF2CF4695F1DF08C0161617061C
:105980001806991FF1CF8695710561050894089551
:10599000E894BB2766277727CB0197F9089516F07F
:1059A0000C94942D0C94452C68940C943F2C0E94DC
:1059B000AE2CA8F39923C1F3AEF3DF93CF931F93DB
:1059C0000F93FF92C92FDD2788232AF02197660FB6
:1059D000771F881FDAF720E030E040E85FEB9FE3B5
:1059E000883920F0803E38F021968F770E94E92A8E
:1059F000EAECF0E004C00E94E92AE7EFF0E00E9440
:105A0000A22D8B01BE01EC01FB2E6F57710975951C
:105A1000771F880B990B0E94042C28E132E741E3A1
:105A20005FE30E94322DAF2D9801AE01FF900F91E0
:105A30001F91CF91DF910E94002B0C94812C0E942A
:105A4000322D0C94812C0E94482C38F00E944F2C4F
:105A500020F0952311F00C943F2C0C94452C11242C
:105A60000C94C92C0E94A62C70F3959FC1F3950F3E
:105A700050E0551F629FF001729FBB27F00DB11DD2
:105A8000639FAA27F00DB11DAA1F649F6627B00D62
:105A9000A11D661F829F2227B00DA11D621F739F4B
:105AA000B00DA11D621F839FA00D611D221F749F59
:105AB0003327A00D611D231F849F600D211D822FA0
:105AC000762F6A2F11249F5750409AF0F1F08823C7
:105AD0004AF0EE0FFF1FBB1F661F771F881F9150F4
